:020000040800F2
:100000000818002045010008E51B00082918000811
:10001000E11B0008AD130008833100080000000058
:10002000000000000000000000000000852600081D
:10003000B11300080000000071200008FD2700082F
:100040005F0100085F0100085F0100085F01000810
:100050005F0100085F0100085F0100085F01000800
:100060005F0100085F0100085F0100085F010008F0
:100070005F0100085F0100085F0100085F010008E0
:100080005F0100085F0100085F0100085F010008D0
:100090005F0100085F0100085F0100085F010008C0
:1000A0005F0100085F0100085F0100085F010008B0
:1000B0005F0100085F0100085F0100085F010008A0
:1000C0005F0100085F0100085F0100085F01000890
:1000D0005F010008792F00085F0100085F01000838
:1000E0005F0100085F0100085F0100085F01000870
:1000F0005F0100085F0100085F0100085F01000860
:100100005F0100085F0100085F0100085F0100084F
:100110005F0100085F0100085F0100085F0100083F
:100120005F0100085F0100085F0100085F0100082F
:10013000DFF80CD000F086FD004800476559000844
:10014000081800200648804706480047FEE7FEE7FB
:10015000FEE7FEE7FEE7FEE7FEE7FEE7FEE7FEE777
:100160000D28000831010008D2B201E000F8012B8F
:10017000491EFBD270470022F6E710B513460A4627
:1001800004461946FFF7F0FF204610BD30B505467E
:100190002A460B4612F8010B13F8014B08B1A04296
:1001A000F8D01CB1002802D06D1CF1E7284630BD04
:1001B000421C10F8011B0029FBD1801A704730B592
:1001C00004460020034600E05B1C934203D2E05C3F
:1001D000CD5C401BF8D030BD70B50F4D00B928681C
:1001E000002412E00A4602E09E4203D0521C13781B
:1001F000002BF9D1DAB2224305D02BB124B1002172
:1002000000F8011B04E00446401C0678002EE9D1EA
:100210002860204670BD0000CC04002070B5064662
:1002200002F0EAFF046805460A220021304600F089
:10023000BDFB2C6070BDF0B480EA0102D40F420017
:10024000B2EB410F02D20246084611464A0042D0A4
:10025000C30DDDB2C1F3C752AD1A202D35DAC1F39B
:10026000160141F4000204B15242C5F1200602FA1F
:1002700006F12A411044B3EBD05F23D0C4B1012D65
:10028000A0EBC35009DCF0BC4FF0004202EAC352BD
:10029000DBB200F5000000F0CABB400000F1807046
:1002A00000EBC350A0F1807040EAD170490009E032
:1002B000490841EAC071A0EBC35000F500004008B6
:1002C00000EBC350F0BC00F0A9BB6142012202EB7D
:1002D0004101001BF6E7F0BC704781F00041AAE73E
:1002E00080F00040A7E780EA010210B502F0004369
:1002F000400022D04A001FD0010E01EB1261C0F372
:100300005600C2F3560240F4000042F40002A0FB83
:10031000022000047F39140400D0401C50EA12402F
:1003200001D44000491EC2B20C0604EBD010401CA0
:100330004008802A02D003E0002010BD20F0010018
:10034000002900DA0020184310BD30B480EA010211
:1003500002F0004530F0004221F0004013D090B18F
:10036000C30DD40DC2F31601C0F31600E41A41F414
:10037000000140F400027D34914201D3641C00E08E
:100380004900002C02DA30BC002070474FF4000016
:100390000023914201D3891A034340084FEA4101E7
:1003A000F7D151B1914202D14FF0004105E002D2A4
:1003B0004FF0010101E06FF0010103EBC45028444C
:1003C00030BC00F02BBB2DE9FE4F804681EA0300D4
:1003D000C00F0C46009021F0004123F00045B8EB1F
:1003E0000200A94105D24046214690461C460B46D4
:1003F000024623F00040104347D0270DC7F30A0000
:10040000C3F30A510290401A019040286BDAC3F3FB
:10041000130040F4801B0098924620B10023D2EBD9
:10042000030A63EB0B0B01985946C0F1400250469A
:1004300000F08BFA06460D4650465946019A00F0E8
:10044000A3FA10EB08006141002487EA115284EA04
:10045000E7731A4340D0009A62B3019A012A4FEA27
:10046000075215DC001B61EB02014FF0004202EA6B
:100470000752CDE90042001C41F5801132462B465F
:1004800000F012FB03B0BDE8F08F40462146F9E7CB
:10049000001B61EB0201001C41F5801300185B4159
:1004A0002018A2F5001747EB030140EAD570B619F2
:1004B0006D4111E06D084FEA360645EAC0754FEA16
:1004C0000752001B61EB0201001C41F58011490835
:1004D0004FEA30000019514132462B4603B0BDE8C7
:1004E000F04F00F0D2BA0098012240000023D0EB78
:1004F000020263EBE073009821464FEAE074B8EB28
:10050000000061EB0401E9E783F000435BE781F061
:10051000004158E72DE9FE4F81EA030404F000444E
:1005200021F0004100944FF0000B23F0004350EA0B
:1005300001045ED052EA03045BD0C3F30A54C1F352
:100540000A552C44A4F2F3340194A0FB0254C1F3E5
:10055000130141F48011C3F3130343F4801301FB2F
:10056000024400FB034E840A970A44EA815447EA96
:100570008357A4FB076802958D0A05FB07854FEAA0
:10058000932C04FB0C542705029D4FEA065847EABA
:100590001637B5EB08056EEB070C870E920E47EA8F
:1005A000811742EA8312A7FB0201B6EB0B0164EB51
:1005B00000042B0D43EA0C335E1844EB1C50DA4662
:1005C0005146E7FB0201C5F313044FEA0B3343EA3C
:1005D00014534FEA0432019C43EA0603A4F10C04CD
:1005E0000294009CCDE900B400F05EFA03B0BDE8CF
:1005F000F08F00200146F9E72DE9F04D81EA030470
:1006000004F0004B21F0004514464FF0000A23F09F
:10061000004150EA050220D054EA01021DD0C5F382
:100620000A570246C5F31303C1F31300C1F30A5678
:1006300040F4801543F48013A7EB0608101BD64640
:1006400008F2FD3873EB050002D308F1010801E060
:1006500092185B41B8F1000F03DA00200146BDE8B3
:10066000F08D00204FF48011064684460EE0171BE3
:1006700073EB050705D3121B63EB050306434CEA36
:10068000010C49084FEA300092185B4150EA01071B
:10069000EDD152EA030012D082EA040083EA050198
:1006A000084305D0101BAB4106D20122002306E00F
:1006B00000224FF0004302E06FF0010253101AEBEA
:1006C00006004CEB085110EB0A0041EB0B01BDE8B2
:1006D000F04D00F0DAB9C10F80EAE0700844CA07B3
:1006E0009623002100F0A3B90EB5C10F80EAE07097
:1006F0000844CA07002140F233438DE80E000A4641
:100700000B4600F0D1F903B000BD0EB540F2334105
:1007100002910021CDE900110A460B4600F0C4F910
:1007200003B000BD3EB5CA17CB0F00245040514066
:10073000C0186141DA0740F233430094CDE9012348
:100740002246234600F0B0F903B030BD00F000426D
:1007500020F00040C10DC0F3160040F400007F29D6
:1007600001DA00207047962903DCC1F19601C840E8
:1007700001E096398840002AF4D04042704770B5B5
:10078000C1F30A5201F000450024C1F3130140F205
:10079000FF3341F480119A4201DA002070BD40F22B
:1007A00033439A42A2F2334203DC524200F0DCF8B7
:1007B00000E090402C43F1D0404270BD70B5C1F3D1
:1007C0000A5201F000450024C1F3130140F2FF3347
:1007D00041F480119A4202DA0020014670BD40F2D5
:1007E00033439A42A2F2334203DC524200F0BCF897
:1007F00001E000F0AAF82C43F0D00023D0EB030076
:1008000063EB010170BD00F0004230F000400AD0FF
:10081000C10D01F56071C0F3160042EA0151C20832
:1008200040071143704700200146704730B5041E51
:1008300071F1000404DB4FF00044404264EB01011D
:10084000141E73F1000405DB1C464FF000435242B6
:1008500063EB0403994208BF904230BD01F00043AE
:1008600030B421F0004150EA010206D00A0DA2F591
:100870006072C1F31301002A02DC30BC0020704713
:10088000440F44EAC104C100E01830BC00EBC25080
:1008900000F0C4B8002801DBC0F10040002901DBF2
:1008A000C1F1004181427047002801DBC0F10040E6
:1008B000002901DBC1F100418842704730B50B4689
:1008C000014600202022012409E021FA02F59D4280
:1008D00005D303FA02F5491B04FA02F52844151E54
:1008E000A2F10102F1DC30BD2DE9F05F05460020E8
:1008F00092469B4688460646814640241BE0284691
:1009000041464746224600F02FF853465A46C01A41
:10091000914110D311461846224600F016F82D1AC0
:1009200067EB01084F4622460120002100F00DF838
:1009300017EB00094E41201EA4F10104DFDC4846FC
:1009400031462A464346BDE8F09F202A04DB203A80
:1009500000FA02F1002070479140C2F1200320FA12
:1009600003F3194390407047202A04DB203A21FA10
:1009700002F00021704721FA02F3D040C2F12002B8
:100980009140084319467047202A06DBCB17203ACE
:1009900041FA02F043EAE07306E041FA02F3D04084
:1009A000C2F1200291400843194670472DE9F047F3
:1009B00091460F4680460446002614F8015B2DB18F
:1009C00000F052F90068405DC007F6D12B2D02D02F
:1009D0002D2D18D0641E4A463946204600F048F9AD
:1009E00027B13968A14201D1C7F8008071054FF0E5
:1009F00002040BD54042002803DD02F0FDFB046039
:100A0000A007BDE8F08746F48066E4E70028F8DA3E
:100A100002F0F2FB04606FF00040F2E70029A8BF8B
:100A20007047401C490008BF20F00100704710B417
:100A3000B0FA80FC00FA0CF050EA010404BF10BCCC
:100A4000704749B1CCF1200421FA04F411FA0CF1F9
:100A500018BF012121430843A3EB0C01CB1D4FEA32
:100A600000614FEA102042BF002010BC704700EB2D
:100A7000C35010440029A4BF10BC7047401C49005B
:100A800008BF20F0010010BC704710B5141E73F1B0
:100A9000000408DA401C41F1000192185B411A433E
:100AA00001D120F0010010BD2DE9F04D92469B468A
:100AB00011B1B1FA81F202E0B0FA80F22032904630
:100AC000FFF743FF04460F4640EA0A0041EA0B01E4
:100AD00053465A46084313D0114653EA010019D031
:100AE000C8F140025046FFF73FFF05460E4650460C
:100AF00059464246FFF729FF084305D0012004E08C
:100B000020463946BDE8F08D0020054346EAE076F0
:100B10002C4337430A986305E40AA0EB080000223F
:100B2000FD0A44EA47540A3002D500200146E9E7AD
:100B3000010510196941DDE9084500196941BDE861
:100B4000F04DA2E770B521F0004303430CD0C1F390
:100B50000A550024D5EB040564EB0403D617AD1A3F
:100B6000B34102DB0020014670BD201841EB025169
:100B700070BD2DE9F04D00231A461B1A8A4103DB94
:100B800000200146BDE8F08DC1F30A52C1F3130104
:100B900041F480154FF0000BD10702D100186D41D0
:100BA000521E0027044640F2FF11384601EB620A4C
:100BB0003E468046024600204FF48011FFF7D4FEE7
:100BC000C2197141BB1846EB0100B4EB030C75EB85
:100BD000000C04D3E41A65EB000517460E462419F1
:100BE00008F101006D4180463428E3DDF91946EB38
:100BF0000600091BA84103D24FF0FF32134601E063
:100C0000002213461BEB070046EB0A51BDE8F04DEE
:100C1000FFF73BBFC1F30A52C1F3130140F2FF33A8
:100C200041F480119A4202DA00200146704740F2F6
:100C300033439A42A2F2334202DC5242FFF794BE9F
:100C4000FFF783BE064C074D06E0E06840F0010365
:100C500094E8070098471034AC42F6D3FFF76CFADB
:100C6000307700085077000800487047BC760008CD
:100C70002DE9F05F82460078002715468B460AF181
:100C80000104B946302801D09DB113E014F8010BDE
:100C90000127782803D0582801D045B10AE00DB1CA
:100CA000102D07D10027102514F8010B02E00825AC
:100CB00000E00A250026B0460EE005FB080005FB13
:100CC00006F1012701EB10461FFA80F8B6F5803FC8
:100CD00000D3B94614F8010B294600F018F8002893
:100CE000EBDABBF1000F05D00FB1641E00E05446F3
:100CF000CBF80040B9F1000F06D002F07DFA0221D6
:100D00000160C81EBDE8F09F48EA0640FAE73A28AD
:100D100000D2303820F02002412A01D3A2F137005E
:100D2000884201D34FF0FF30704770B58D1810F82E
:100D3000014B14F0030201D110F8012B231106D14D
:100D400010F8013B03E010F8016B01F8016B521E33
:100D5000F9D1ABB110F8012B04F00C048A1A0C2C59
:100D600003D0A2EB84129B1C08E010F8014BA2EB0D
:100D70000422F8E712F8014B01F8014B5B1EF9D58C
:100D8000A942D4D3002070BDA84EA94CA94F90B061
:100D90004FF02D0B4FF4814A4FF00009002004F072
:100DA000D5FA002004F0F1F900210F2004F07CF9BD
:100DB0003042A060F8D0208940047DD55246002101
:100DC0000F2004F07EFB0021102004F06DF940B2EA
:100DD000B0F5806F04DC81B20022964804F0B8F9C7
:100DE000B9785846B1FBF0F20BFB121223799A4204
:100DF000D4D1B1FBF0F20BFB12100E90FD788C49B0
:100E000087F80290C84687F803900A224331894840
:100E1000FFF7D5F980B186490A2285318548FFF769
:100E2000CEF921790843B9D1F87A01287DD0B87A72
:100E3000814905F01FFCB1E704F046FCC4E9040158
:100E40004FF4FA7004F066FA40F6E44004F07EFADB
:100E5000774821784F3000228170C57001460F20FD
:100E600004F07BFB00210F2004F08AFB022004F039
:100E7000ABFA00210F2004F017F93042A060F8D03F
:100E80002089400499D5524600210F2004F019FB17
:100E90000021102004F008F900F07F01182903DC7C
:100EA0000022644804F054F987F80280F97840463B
:100EB000A942C0D1F87000E0ABE05D490A225E3182
:100EC0005C48FFF77CF90028B5D104F010FCC4E9B8
:100ED000060104F0F9FBC4E9080156480CA90A30E0
:100EE00004F0C2FB53480DA90E3004F0BDFB51487D
:100EF00007A9123004F0B8FB21690891D4F81880D2
:100F0000216A02910D980C990190401AFFF7FDFBA0
:100F1000CDE905100299A1EB0800FFF7F6FBCDE93A
:100F2000031007990198081A00E078E0FFF7EDFB3D
:100F3000CDE901100899A8EB0100FFF7E6FB089145
:100F40000090DDE90510DDE90332FFF73CFADDE949
:100F50000132FFF738FA089B009AFFF734FACDE91F
:100F60000910DDE90110089B009AFFF7D3FA0191FF
:100F70008046DDE90510DDE90332FFF7CBFA424692
:100F8000019BFFF7C1FADDE90932FFF735FBFFF7F7
:100F900015FCFFF7C7FB294A294BFFF7BBFA4FF0B7
:100FA0009852284BC4E90A01FFF7B4FAC4E90C01CE
:100FB000FFF754FC1E4B014638335A78187803F07B
:100FC00045FFD4E90C23FFF7A2FA00221E4BC4E927
:100FD0000C01FFF79FFAFFF7D2FB642290FBF2F3BC
:100FE000134976318B7290FBF2F302FB1300C87247
:100FF0000E98087320788870CD7000220F2004F0BE
:10100000ACFA00210F2004F0BBFA002004F0DCF958
:10101000C4E60E4A00210F2004F053FABEE605484C
:10102000FD70397B0D3002F0A0F8B7E600D0272420
:10103000E0030020EC110020C8040020FA48CE3B59
:101040001835B13D19DDB141000059400090272409
:1010500070B504460D461646022C0AD103F096F9E7
:1010600008B9E01E70BD03F0A3F828B94FF0FF30B7
:10107000F8E7032C00D000BF0120F3E72DE9FC4185
:10108000054688461646022D07D1422001900122CE
:1010900001A92C4800F03AFA51E0032D35D1002780
:1010A00029A13068FFF798F807463846FFF7B6F8E9
:1010B00084B2002000900190012C03D10120ADF8F2
:1010C000000008E01CB90020ADF8000003E04FF07C
:1010D000FF30BDE8FC8100271BA10020FFF77CF852
:1010E00007463846FFF79AF884B2002C04DBFF2C41
:1010F00002DCADF8024002E04FF0FF30E9E70222E7
:101100006946104800F002FA19E0012D17D10020BD
:1011100000900190032269460A4800F0C6F9BDF824
:1011200000100AA002F030F8BDF802100AA002F088
:101130002BF8BDF804100BA002F026F800BF012028
:10114000C7E70000000001082C0000006275666619
:10115000303A25640D0A000062756666313A2564EE
:101160000D0A000062756666323A25640D0A0000B9
:101170000346022B02D0032B00D000BF0120704792
:101180007CB504460D461646022C09D1074903C911
:10119000CDE9000103226946054800F0B7F902E0F5
:1011A000032C00D000BF01207CBD0000806A000835
:1011B0000000010870B504460D461646022C11D1F8
:1011C0000BA001F0E1FF00BF0B48006800F4E060F5
:1011D0000A490843001D08490860BFF34F8F00BF4C
:1011E00000BFFEE7032C00D000BF012070BD00004F
:1011F0000D0A4F4B0D0A00000CED00E00000FA054F
:101200002DE9F84304460F469046022C1CD10020DD
:101210000090684601F080F80098FFF7F4FA054660
:101220002A460B460BA001F0AFFF00200090684655
:1012300001F004F80098FFF7E6FA05462A460B4647
:1012400006A001F0A1FF02E0032C00D000BF0120A6
:10125000BDE8F883543A25660D0A0000483A256631
:101260000D0A00002DE9F84304460F469046022C73
:101270000ED100200090684603F086FA0098FFF730
:10128000C2FA05462A460B4604A001F07DFF02E0A3
:10129000032C00D000BF0120BDE8F883616E676CAD
:1012A000653A25660D0A00002DE9F041044688469E
:1012B0001646022C18D0032C15D100270BA130683C
:1012C000FEF78AFF07463846FEF7A8FF85B2052DD0
:1012D00004DB322D02DC0648056003E04FF0FF30EE
:1012E000BDE8F08100E000BF0120F9E72C0000001C
:1012F000300100202DE9F041044688461546022CB5
:101300001CD0032C19D100270DA12868FEF764FF1B
:1013100007463846FEF782FF86B2012E03D1012030
:101320000849087008E01EB900200649087003E06B
:101330004FF0FF30BDE8F08100E000BF0120F9E789
:101340002C000000B401002070B504460D4616467E
:10135000022C06D0032C04D0012C02D102A001F0F3
:1013600013FF012070BD00004149542D425530311A
:101370002D444220563130302054323032302D3519
:101380002D31370D0A000000002000BF07E00021CA
:10139000044A42F82010044A42F82010401C2D282C
:1013A000F5DB704740090020F409002000BFFEE78C
:1013B00070470000014600200022044B1B6803EA2E
:1013C00001020AB1012000E0002070470004014042
:1013D00030B5044604254FF4302000F083F805466C
:1013E000042D17D10C48006940F002000A49086139
:1013F00008464461006940F0400008614FF4302025
:1014000000F070F805460448006941F6FD71084097
:1014100001490861284630BD0020024004200B49E4
:10142000C96801F0010109B101200EE00749C9684E
:1014300001F0040109B1022007E00449C96801F084
:10144000100109B1032000E0042070470020024091
:101450000348006940F080000149086170470000BE
:101460000020024070B504460D460426F00200F04C
:1014700039F80646042E11D10948006940F00100F0
:10148000074908612580F00200F02CF80646044860
:10149000006941F6FE71084001490861304670BD9F
:1014A0000020024001460888704730B503460C46CC
:1014B0001546002207E003EB4200FFF7F3FF24F894
:1014C0001200501C82B2AA42F5DB30BD024803492B
:1014D0004860034848607047230167450020024088
:1014E000AB89EFCD00B502460423FFF797FF034613
:1014F00003E0FFF793FF0346521E012B01D1002AA0
:10150000F7D102B90523184600BD00002DE9F047C8
:10151000054688461646B5F1006F04D305EB460034
:101520001049884201D3BDE8F087FFF7CFFFA5F14E
:1015300000694FEAD9274FF0006000EBC72A5046F8
:10154000FFF746FF002407E038F8141005EB4400CD
:10155000FFF788FF601C84B2B442F5DBFFF778FF29
:1015600000BFE0E70000080808B501217D2000F079
:10157000A1FD4FF6FF70ADF8000000208DF80300CC
:101580006946314800F06AF86946304800F066F86C
:1015900069462F4800F062F869462E4800F05EF870
:1015A00069462D4800F05AF80420ADF800008DF887
:1015B00003006946254800F051F849F68150ADF81E
:1015C000000004208DF803006946214800F046F829
:1015D0004FF4EC50ADF8000004208DF8030069468C
:1015E0001B4800F03BF84FF40040ADF80000042029
:1015F0008DF803006946144800F030F80E20ADF86D
:10160000000010208DF8030003208DF802006946C9
:101610000D4800F023F842F20800ADF80000102059
:101620008DF8030003208DF802006946084800F099
:1016300015F80021012000F09DF84FF400510448F6
:1016400000F0EBF8002008BD00080140000C01404C
:101650000010014000140140001801402DE9F04144
:10166000024600250026002000230024002791F8D0
:1016700003C00CF00F0591F803C00CF0100CBCF186
:10168000000F03D091F802C04CEA050591F800C0A4
:10169000BCF1000F31D0146800202BE04FF0010C9A
:1016A0000CFA00F3B1F800C00CEA03069E4220D108
:1016B00083004FF00F0C0CFA03F7BC4305FA03FC50
:1016C0004CEA040491F803C0BCF1280F06D14FF096
:1016D000010C0CFA00FCC2F814C00AE091F803C037
:1016E000BCF1480F05D14FF0010C0CFA00FCC2F818
:1016F00010C0401C0828D1D31460B1F800C0BCF160
:10170000FF0F34DD546800202EE000F1080C4FF08C
:10171000010808FA0CF3B1F800C00CEA03069E4277
:1017200021D183004FF00F0C0CFA03F7BC4305FAEC
:1017300003FC4CEA040491F803C0BCF1280F05D166
:1017400000F1080C08FA0CF8C2F8148091F803C0F4
:10175000BCF1480F07D100F1080C4FF0010808FA5E
:101760000CF8C2F81080401C0828CED35460BDE8A5
:10177000F0810000F0B50A46002300240021002576
:1017800000F00046B6F1004F02D11D4EF16901E0B4
:101790001B4E7168C0F3034583B200F44016B6F5E2
:1017A000401F08D121F07061154E766826F07066F2
:1017B000134F7E6012E000F48016B6F5801F06D14C
:1017C000032606FA05F4A14341F0706106E0460DD8
:1017D000360103FA06F6B14341F0706122B1460DBD
:1017E000360103FA06F6314300F00046B6F1004F29
:1017F00002D1034EF16101E0014E7160F0BD0000C5
:10180000000001400246002093680B400BB101200C
:1018100000E000207047416170470161704710B5DA
:1018200004F036FA10BD000002A001F0ADFC00BFCC
:10183000FEE70000486172644661756C745F486140
:101840006E646C6572200D0A0000000021B10288F0
:1018500042F48062028004E002884FF6FF331A40AF
:101860000280704770B50246002400250023002046
:10187000958A138B1B0445EA030626F07F4404EA8D
:1018800001068E4201D1012000E0002070BD21B18F
:10189000028842F00102028004E002884FF6FE73E3
:1018A0001A4002807047000010B504460B4884427D
:1018B00009D10121480500F0EDFB00214FF4001093
:1018C00000F0E8FB08E00121880500F0E3FB0021BF
:1018D0004FF4800000F0DEFB10BD0000005400401B
:1018E00021B1028842F48072028004E002884FF63F
:1018F000FF631A400280704721B1028842F40072EF
:10190000028004E002884FF6FF531A4002807047BD
:101910000CB50246002000230193009300920B0FA8
:10192000019321F07F41019B1BB1009B1433009375
:1019300003E0090C009B18330093009B1B680B40CD
:101940000BB1012000E000200CBD00002DE9F043A8
:1019500085B004460D460026B1460427DFF8CC804A
:10196000A6884FF6C0700640684600F0C3FBDDF85D
:1019700008802F48B8FBF0F01FFA80F946EA090604
:10198000A68020884FF6FE71084020800026294955
:10199000286888420CD828684000B8FBF0F087B26D
:1019A000042F00DA04273E4309F10100208427E0D8
:1019B000E8884BF6FF71884206D1286800EB4000AA
:1019C000B8FBF0F087B209E0286800EBC00101EB3A
:1019D0000010B8FBF0F087B247F48047C7F30B0064
:1019E00008B947F0010747F4004006434FF49670EA
:1019F00009FB00F04FF47A7190FBF1F0401C208459
:101A0000A683208840F00100208026884FF6F5301C
:101A10000640A8886989084306432680A889298941
:101A20000843208105B0BDE8F083000000127A0071
:101A300040420F00A0860100B1F5006F04D102887A
:101A400042F40062028004E002884FF2FF731A4001
:101A5000028070470146088AC0B2704712B141F057
:101A6000010102E04FF6FE731940018270470182C6
:101A7000704700002DE9F0410746884615461E468E
:101A8000002401213846FFF72BFF642400BF2D49B5
:101A90003846FFF7E7FE20B9201EA4F101018CB201
:101AA000F5D1002241463846FFF7D8FF14B900208F
:101AB00025490860642400BF24493846FFF7D2FE58
:101AC00020B9201EA4F101018CB2F5D12946384677
:101AD000FFF7CDFF642400BF1C49891C3846FFF77F
:101AE000C1FE20B9201EA4F101018CB2F4D131460F
:101AF0003846FFF7BCFF642400BF1449891C3846F0
:101B0000FFF7B0FE20B9201EA4F101018CB2F4D180
:101B100001213846FFF7F0FE642400BF0C49384627
:101B2000FFF7F6FE20B1201EA4F101018CB2F5D121
:101B300000213846FFF78AFE502000F00BF8002005
:101B4000BDE8F08101000300D803002082000700F7
:101B50001000001000BF011EA0F1010290B2FAD1E6
:101B60007047000008B50121480500F083FA012103
:101B7000092000F09FFAC020ADF8000003208DF886
:101B800002001C208DF8030069461148FFF766FD2E
:101B90001048FFF789FE00200F4988804BF6FF7040
:101BA000C880302008814FF480604881000188811E
:101BB0000A48086001210748FFF769FE0649054801
:101BC000FFF7C4FE01210348FFF740FE08BD0000F7
:101BD000000C01400054004090110020801A0600C3
:101BE00000BFFEE77047000070B5002100230F2200
:101BF000C47804B3154C246804F4E064C4F5E064CC
:101C0000210AC1F10403CA40447804FA03F184783C
:101C10001440214309010E4C0678A155047804F0C4
:101C20001F050124AC4005786D11AD0005F1E025DC
:101C3000C5F8004109E0047804F01F050124AC4018
:101C4000044D0678761145F8264070BD0CED00E095
:101C500000E400E080E100E002490143024A116033
:101C6000704700000000FA050CED00E010B50028F8
:101C700007DA0A07140E054A00F00F031B1FD4549D
:101C800003E00A07130E024A135410BD18ED00E0DA
:101C900000E400E004480168044A01F4E0611143F3
:101CA0000160BFF3408FFEE70CED00E00400FA0591
:101CB00070B5002419E004F1B001C8B2002100F0B1
:101CC000FFF80021084600F0FBF80021102000F08A
:101CD000F7F8002505E00121002000F0F1F8681C6C
:101CE000C5B2802DF7DB601CC4B2082CE3DB70BDED
:101CF00010B50021AE2000F0E3F80021084600F006
:101D0000DFF80021102000F0DBF80021402000F077
:101D1000D7F80021812000F0D3F80021CF2000F077
:101D2000CFF80021A12000F0CBF80021C82000F05E
:101D3000C7F80021A62000F0C3F80021A82000F079
:101D4000BFF800213F2000F0BBF80021D32000F0B5
:101D5000B7F80021084600F0B3F80021D52000F0C4
:101D6000AFF80021802000F0ABF80021D92000F06E
:101D7000A7F80021F12000F0A3F80021DA2000F0FC
:101D80009FF80021122000F09BF80021DB2000F0DA
:101D900097F80021402000F093F80021202000F067
:101DA0008FF80021022000F08BF800218D2000F038
:101DB00087F80021142000F083F80021A42000F00F
:101DC0007FF80021A62000F07BF80021AF2000F072
:101DD00077F80021AF2000F073F8FFF769FF0021CA
:101DE000084600F001F810BD70B504460D4605F137
:101DF000B001C8B2002100F063F8102141EA1410CC
:101E0000002100F05DF804F00F0141F00100002115
:101E100000F056F870BD00002DE9F04107460E466F
:101E2000904600250024A8F12000C5B27F2F02DDD6
:101E30000027B01CC6B231463846FFF7D5FF002454
:101E400008E004EB05110F4A505C012100F038F85E
:101E5000601CC4B2082CF4DB701CC1B23846FFF71A
:101E6000C3FF002409E004EB05110831054A505C6A
:101E7000012100F025F8601CC4B2082CF3DBBDE89A
:101E8000F0810000AE6C00082DE9F04104460F46D9
:101E9000154600260EE0AA5D39462046FFF7BCFF36
:101EA00004F10800C4B2782C02DD0024B81CC7B2CB
:101EB000701CC6B2A85D0028EDD1BDE8F08100001D
:101EC00070B504460D460948006801280DD135B1AA
:101ED0002346402278210648FFF7CCFD05E0234643
:101EE000002278210248FFF7C5FD70BDD80300200D
:101EF000005400402DE9F84F05460E461746984617
:101F0000AB46B1460097C246FF240021584603F075
:101F100066F94946584603F077F95146009803F0B0
:101F20005EF9504602F086FFC4B2012C02D00020B8
:101F3000BDE8F88F0021584603F066F9504602F0DC
:101F400079FFC4B20CB10020F2E70021009803F041
:101F500046F95146009803F057F94946584603F0B0
:101F60003EF9484602F066FFC4B2012C01D00020C1
:101F7000DEE70021009803F047F9484602F05AFFD7
:101F8000C4B20CB10020D3E70120D1E72DE9F8431A
:101F900080460E4617461C46FF25ADF8006010200F
:101FA0008DF8030003208DF8020069464046FFF7D4
:101FB00055FB31464046FFF730FC00200090ADF85D
:101FC000004048208DF8030003208DF80200694688
:101FD0003846FFF743FB21463846FFF713FC05461A
:101FE000012D02D00020BDE8F88331464046FFF7BE
:101FF00012FC21463846FFF705FC05460DB10020CE
:10200000F1E700200090ADF8004010208DF80300AB
:1020100003208DF8020069463846FFF71FFB214672
:102020003846FFF7FAFB00200090ADF8006048202A
:102030008DF8030003208DF8020069464046FFF743
:102040000DFB31464046FFF7DDFB0546012D01D073
:102050000020C8E721463846FFF7DDFB3146404601
:10206000FFF7D0FB05460DB10020BCE70120BAE721
:102070007047000029B1064AD2690243044BDA6175
:1020800004E0034AD2698243014BDA6170470000E1
:102090000010024029B1064A12690243044B1A613A
:1020A00004E0034A12698243014B1A617047000041
:1020B0000010024029B1064A92690243044B9A611A
:1020C00004E0034A92698243014B9A617047000021
:1020D0000010024029B1064AD2680243044BDA607C
:1020E00004E0034AD2688243014BDA607047000083
:1020F0000010024030B500210022002400232D4DA5
:102100006D6805F00C0121B1042905D0082923D1FF
:1021100005E0294D056022E0284D05601FE0254DB2
:102120006D6805F47012234D6D6805F48034022546
:1021300005EB92421CB9224D554305600BE01D4D45
:102140006D6805F400351DB11B4D5543056002E077
:102150001A4D5543056002E0174D056000BF00BFF2
:10216000144D6D6805F0F0010909164D6B5C0568AA
:10217000DD4045600F4D6D6805F4E061090A114DC1
:102180006B5C4568DD4085600A4D6D6805F4605103
:10219000C90A0C4D6B5C4568DD40C560054D6D6836
:1021A00005F44041890B084D6B5CC568B5FBF3F540
:1021B000056130BD0010024000127A000024F400D6
:1021C00000093D0044010020540100201CB50020FE
:1021D00001900090FE208DF80400012301AA8021C7
:1021E000154803F045FB42F22830FFF7B3FCE72027
:1021F0008DF80400012301AA80210F4803F038FB69
:1022000001236A4680210C4803F084FA0223E62267
:1022100080210948FFF72EFCE7208DF804000123F8
:1022200001AA8021044803F023FB01236A46802190
:10223000014803F06FFA1CBD005400402DE9FE4F29
:1022400082460020029001908346F5208DF8080018
:10225000012302AA8021254803F00AFB00BF0120C8
:1022600000901CE04FF6FE70FFF774FC032301AAF8
:1022700080211E4803F04EFA0090009800B90FE04C
:10228000BBF1140F07DD1AA1002000F07DFF4FF015
:10229000FF30BDE8FE8F0BF1010000F0FF0BE1E71E
:1022A00000BF9DF8050020F003008DF805009DF8A3
:1022B00005109DF8042041EA0220FEF70CFACAF846
:1022C0000000DAF80000FEF79EFA06460F4A104BAF
:1022D000FEF720F9044600220E4BFEF715F9804662
:1022E000FEF7BCFACAF800000020D2E70054004014
:1022F00053485432305F726561645F74656D207459
:10230000696D65206F757420303300007644CF7797
:1023100001405F3F000018402DE9FE4F824600203B
:10232000029001908346F3208DF80800012302AA51
:102330008021254803F09CFA0120009000BF1BE09B
:102340004FF6FE70FFF706FC032301AA80211E480A
:1023500003F0E0F90090009800B90EE0BBF1140F13
:1023600006DD1AA000F010FF4FF0FF30BDE8FE8F31
:102370000BF1010000F0FF0BE2E700BF9DF8050044
:1023800020F003008DF805009DF805109DF804204D
:1023900041EA0220FEF79FF9CAF80000DAF80000CF
:1023A000FEF731FA0646104A104BFEF7B3F8044622
:1023B0000F4A104BFEF7A8F88046FEF74FFACAF80E
:1023C00000000020D2E7000000540040534854327F
:1023D000305F726561645F74656D2074696D65203E
:1023E0006F75742030330000619FC6DE07F7653FCC
:1023F000CDCCCCCCCC6C474001460020044A1088A0
:102400004FF6C77210400843014A10807047000021
:102410000030014021B1028842F04002028004E015
:1024200002884FF6BF731A400280704700B587B02C
:10243000294800F055F80020ADF808004FF48270EC
:10244000ADF80A000020ADF80C00ADF80E00ADF8B4
:1024500010004FF40070ADF812001020ADF8140019
:102460000020ADF816000720ADF8180002A91A48A0
:1024700000F06BF8A020ADF8040018208DF80700DC
:1024800003208DF8060001A91448FFF7E7F8402063
:10249000ADF8040048208DF8070001A90F48FFF7A8
:1024A000DDF81020ADF804008DF8070003208DF84A
:1024B000060001A90948FFF7D1F80021064800F0FD
:1024C00062F801210448FFF7A5FF10210348FFF738
:1024D000A4F9002007B000BD003001400008014011
:1024E00010B504461148844208D101218014FFF739
:1024F000F1FD0021A014FFF7EDFD16E00C48844229
:1025000008D101210014FFF7C5FD00212014FFF7B9
:10251000C1FD0AE00748844207D10121C013FFF73B
:10252000B9FD0021E013FFF7B5FD10BD00300140FB
:1025300000380040003C00400246002013890B4058
:102540000BB1012000E00020704710B50022028886
:1025500002F441520B884C8823438C882343CC8857
:1025600023430C8923434C8923438C892343CC89FF
:1025700023431A430280838B4FF2FF7423408383EB
:102580000B8A038210BD21B1828842F0040282804E
:1025900004E082884FF6FB731A4082807047000087
:1025A0007CB504460D462E4951F824102D4A52F8A8
:1025B0002420114341F001000121FFF77BFD34B9D4
:1025C000294951F824000121FFF774FD05E026494F
:1025D00051F824000121FFF74DFD18208DF8070068
:1025E000224830F81400ADF8040003208DF80600EE
:1025F0001F4951F8240001A9FFF730F804208DF895
:1026000007001C4830F81400ADF804001A4951F8CE
:10261000240001A9FFF722F8184951F8240029469F
:1026200000F02EFD4FF44070FFF716FB25208DF8CB
:10263000000037208DF8020001208DF80300684665
:10264000FFF7D2FA012240F225510D4800F0F2FCCA
:102650000A4951F82400012100F0A9FC7CBD0000CA
:10266000686A0008706A0008606A0008786A0008F2
:10267000A40100207C6A0008AC0100209C0100201D
:102680000038014070470000002000BF03E0002137
:10269000024A1154401C0128F9DB7047E503002071
:1026A00010B500F001F810BD0CB5002001900090AD
:1026B0003348006840F480303149086000BF30483A
:1026C000006800F4003000900198401C01900098D0
:1026D00018B90198B0F5A06FF1D12948006800F44D
:1026E000003010B10120009001E00020009000981F
:1026F000012843D12348006840F0100021490860B8
:102700000846006820F0030008600846006840F0B2
:10271000020008601A484068194948600846406845
:1027200048600846406840F4806048600846406859
:1027300020F47C1048600846406840F4F810486077
:102740000846006840F08070086000BF0C480068D0
:1027500000F000700028F9D00948406820F003001C
:10276000074948600846406840F00200486000BFE2
:102770000348406800F00C000828F9D10CBD0000A7
:10278000001002400020024000210020044A11787D
:1027900003E0044A525C1044491C0129F9DB7047EC
:1027A000E3030020E503002010B5134800684FF450
:1027B0007A71B0FBF1F4B4F1807F01D3012011E014
:1027C00024F07F40401E4FF0E02148610F214FF080
:1027D000FF30FFF74BFA00204FF0E021886107201F
:1027E0000861002008B100BFFEE70521881FFFF740
:1027F0003DFA002010BD000058010020024800688A
:10280000401C0149086070470000002010B51348C3
:10281000006840F00100114908600846406810490E
:1028200008400E494860084600680E4908400B49B8
:1028300008600846006820F4802008600846406868
:1028400020F4FE0048604FF41F008860FFF728FF67
:102850004FF000600449086010BD00000010024005
:102860000000FFF8FFFFF6FE08ED00E00026DFF8AD
:10287000FCB3FF4DFF4C3746B146B2469BF8000013
:102880000028FBD0012F35D1DFF8EC830221474629
:102890004046FEF7C0FF04213846FEF7BCFF00F0BB
:1028A00001FA6078A1780027884223D0F149227884
:1028B000A4318A70C87000220D2002F04EFE002163
:1028C0000D2002F05DFE002002F07EFD03F0E0F935
:1028D000E06005E003F0DCF9E168401AC8286FD831
:1028E00000210F2002F0E0FB0006F3D50421404652
:1028F000FEF793FF6078A178884275D1FFF744FF17
:10290000002862D1E67857E0DA48D046B130014677
:1029100080F802A0C67000220D2002F01EFE0021E9
:102920000D2002F02DFE022002F04EFD03F0B0F962
:10293000E06005E003F0ACF9E168401AC828CED8A1
:1029400000210F2002F0B0FB2842A060F2D02089C5
:1029500040042AD54FF4814200210F2002F0B1FD3E
:102960000021102002F0A0FB00F07F01182903DCF9
:102970000022C24802F0ECFBC048414680F80280C9
:10298000C278B24216D1C170BA4990460A22CB3100
:10299000FDF715FC70B9B7480122401D042100F86D
:1029A0000820B548FEF739FF04E0B54A00210F20A2
:1029B00002F087FD761CF6B2002EA5D0E67802E084
:1029C000E5E0761CF6B2002EFBD0B9F1000F61D124
:1029D000FFF7DAFE00287DD0DFF8988208F10508BD
:1029E00088F800A0E67893E0BEE000BF18F8060083
:1029F000012870D1962002F08DFC40F68C2002F068
:102A0000A5FC9C490022BE310D2081F802A0CE70A9
:102A100002F0A3FD00210D2002F0B2FD022002F021
:102A2000D3FC00210F2002F03FFB2842A060F8D029
:102A30002089400463D502218F48FEF7EEFE4FF453
:102A4000814200210F2002F03CFD0021102002F005
:102A50002BFB00F07F01182903DC0022874802F0DD
:102A600077FB8648514680F802A0C278B2424DD129
:102A7000C17008218048FEF7D0FE7E490A22D83175
:102A80007E48FDF79CFB30BB09F10100C0B25FEA54
:102A9000000961D043F2BC4002F058FC002002F073
:102AA00074FB00210F2002F0FFFA2842A060F8D04A
:102AB0002089400440D54FF4804200210F2002F0CD
:102AC00000FD0021102002F0EFFA40B2B0F5806F57
:102AD00007DC01E02FE019E081B20022674802F034
:102AE00037FB664863490A2280F802A090F8038009
:102AF00080F803A0A431FDF762FB68B12CE008F870
:102B000006A05F4A00210F2002F0DBFC761CF6B223
:102B1000002E3FF46BAF1FE05648401D10F8081020
:102B2000012919D100F808A0B9F1000F14D0A9F1BA
:102B3000010000F0FF090FE0B9F1000F07D04D4987
:102B4000A9F10100491D00F0FF0901F806A04C4A57
:102B500000210F2002F0B5FCFFF716FE00287FF4DD
:102B60008DAE0127814689E6002002F0EFFB0020B0
:102B700002F00BFB03F08CF8A046E06009E000BF18
:102B800003F086F8D8F80C10401AC82801D9FFF7CE
:102B900081F800210F2002F087FA2842C8F80800C7
:102BA000EED0B8F80800400471D54FF481420021FE
:102BB0000F2002F086FC0021102002F075FA40B2CE
:102BC000B0F5806F04DC81B200222C4802F0C0FA1C
:102BD0002A49504681F802A0CA7898F801309A42F2
:102BE000C1D1C87023490A22B1312448FDF7E7FA60
:102BF000B8B9204898F80010CB300022817098F8BE
:102C00000110C17001460D2002F0A7FC00210D202B
:102C100002F0B6FC002002F0D7FB04211648FEF7B4
:102C2000FCFD14490A22BE311448FDF7C8FA0028F9
:102C300099D1104898F80010D8300022817098F887
:102C40000110C17001460D2002F087FC00210D200B
:102C500002F096FC002002F0B7FB00210F2002F0EA
:102C600023FA0006F9D5012702210CE0B401002067
:102C700000D02724E003002000080140EC110020D0
:102C80000090272403E00548FEF7C7FDF6E5044A57
:102C900000210F2002F015FCF0E5000000080140C3
:102CA000009027242DE9F04700260025A9460020A2
:102CB000A049087000BF37E1962002F02BFB40F6D8
:102CC0008C2002F043FB9B4800789B4988709B480E
:102CD0000078C87000220C2002F03FFC00210C207C
:102CE00002F04EFC022002F06FFB002002F04DFAD1
:102CF00002F0CEFF074606E002F0CAFFC01BB0F5A7
:102D0000AF7F00D909E000210F2002F0CDF98C49F6
:102D100008608C4908400028EED000BF02218A4894
:102D2000FEF77BFD8648008800F48040002873D0C1
:102D30004FF4814200210F2002F0C3FB002110203C
:102D400002F0B2F900F07F05182D04DC00222946BC
:102D50007E4802F0FDF97D48C078784909788842BC
:102D600000D0DFE000207949C87088700A227849D5
:102D70007648FDF724FA00287AD102F0B8FC754AAB
:102D800003C202F0A1FC744A03C27348D0E90030C8
:102D90004FF02F629A1840F10000010641EA122814
:102DA000404602F046FA28F001000021090241EAFB
:102DB000106102020023D21859416848C0E900217D
:102DC00064480CC8664802F05CFC63480CC8644860
:102DD000001D02F056FC61480CC86148083002F042
:102DE00050FC544800785E490A398870534800788E
:102DF000C8700022182002F0B0FB0021182002F059
:102E0000BFFB032002F0E0FA07E002F041FFC01B25
:102E1000B0F5FA7F01D90AE079E000210F2002F035
:102E200043F947490860474908400028EDD000BFF2
:102E30004348008800F48040002862D04FF481426B
:102E400000210F2002F03DFB0021102002F02CF9A0
:102E500000F07F05182D04DC002229463B4802F0D3
:102E600077F93A48C07835490978884201D059E065
:102E700052E000203549C87088700A223949334829
:102E8000FDF79DF9B8BB3148807A4FF47A71484319
:102E90002E49C97A01EB810100EB41002B49097BE6
:102EA000314A52F8211008442849097B42F8210090
:102EB0002648007B2D4951F82000401C2349097BFE
:102EC0002A4A42F82100002417E0284850F824003C
:102ED0002749096888420FDB01F08EFB002407E0D8
:102EE0000020224941F824001F4941F82400641CB5
:102EF0002D2CF5DB03E009E0641C2D2CE5DB00BF85
:102F000004E01C4A00210F2002F0DBFA04E0194A19
:102F100000210F2002F0D5FA06480078401C054930
:102F2000087000BF701CC6B22D2EFFF6C5AEBDE8FE
:102F3000F0870000E800002055000020E103002099
:102F4000EC00002000D0272400080140D804002015
:102F5000610000200801002010010020180100205D
:102F60007A0000204600002040090020F4090020DB
:102F7000300100200090272410B540F2255106486A
:102F800000F02EF838B10024034800F0E5F8C4B290
:102F9000204601F0C7F810BD0038014001F400726E
:102FA000B2F5007F00D100BFCA430280704721B153
:102FB000828942F40052828104E082894DF6FF73D7
:102FC0001A408281704702460020B1F5007F00D18F
:102FD00000BF13880B400BB1012000E000207047B8
:102FE00070B50246002400230025002040F66A1632
:102FF000B14200D100BFC1F3421501F01F03012609
:1030000006FA03F3012D02D19689334006E0022D22
:1030100002D1168A334001E0968A33400C12012611
:1030200006FA04F41688344013B10CB1012000E014
:10303000002070BDF0B503460024002600250020C6
:1030400040F66A17B94200D100BF1846C1F34214D6
:1030500001F01F06012707FA06F5012C01D10C30FB
:1030600004E0022C01D1103000E014301AB10768DE
:103070002F43076002E00768AF430760F0BD000020
:103080002DE9F04786B005460E460024A24600BF53
:10309000A1460027B08900B100BF2F462C8A4CF60C
:1030A000FF700440F08804432C82AC894EF6F31084
:1030B0000440B08831890843718908430443AC81D6
:1030C000AC8A4FF6FF400440B0890443AC8201A8AB
:1030D000FFF710F81F48874202D1DDF810A001E089
:1030E000DDF80CA0A88900F4004040B10AEBCA004A
:1030F00000EB0A1031684900B0FBF1F807E00AEB79
:10310000CA0000EB0A1031688900B0FBF1F86420B6
:10311000B8FBF0F004012009642101FB1089A889A3
:1031200000F4004040B1322000EBC900B0FBF1F0E8
:1031300000F00700044308E0322000EB091064218E
:10314000B0FBF1F000F00F0004432C8106B0BDE8A5
:10315000F08700000038014001468888C0F308006D
:103160007047C1F308028280704770B505460E466D
:10317000002403E0285D03F07FFA641CB442F9DB0D
:1031800070BD00BFFEE700000FB4054B10B503A9EA
:10319000044A029800F054FA10BC5DF814FB0000D9
:1031A0009D560008C80400200FB4084B10B504A9B0
:1031B00002AA039800F044FA044602A9002000F095
:1031C000D6FD204610BC5DF814FB00006F3D0008E2
:1031D000490050EAC12018BF04204A0D18BF40F032
:1031E000010040F2FF72B2EB515F08BF40F00200F5
:1031F000012808BF0520704700487047D004002010
:103200002DE9F0414F1E00EBC7010446D1E9000152
:1032100015461E4637F006020DD02A463346FDF706
:1032200079F97F1E04EBC703D3E90023FDF7CBF840
:1032300037F00602F1D1022F25D0042F13D0062F2C
:1032400018BFBDE8F0812A463346FDF763F9D4E99B
:103250000A23FDF7B8F82A463346FDF75BF9D4E9AF
:103260000823FDF7B0F82A463346FDF753F9D4E9B1
:103270000623FDF7A8F82A463346FDF74BF9D4E9B3
:103280000423FDF7A0F82A463346FDF743F9D4E9B5
:103290000223FDF798F82A463346FDF73BF9D4E9B7
:1032A0000023BDE8F041FDF78EB800000022134670
:1032B00010460149FDF7A0B90000F03F0122FDF7DB
:1032C00041BCFDF780B80022134610461146FDF7B9
:1032D00093B940F2013200204FF0E041FDF732BCDB
:1032E000024A00201107FDF72DBC000001FDFFFF81
:1032F00002E008C8121F08C1002AFAD170477047BF
:10330000002001E001C1121F002AFBD1704700001C
:103310000149086070470000D004002038B5044619
:103320006D2000906B46012240F606012E2002F02F
:10333000E0F83CB140F2076241F606012E2002F0AF
:10334000ADF806E041F2076241F606012E2002F0D8
:10335000A5F838BD38B504466B4602220021362058
:1033600001F0C4FE0E2C57D2DFE804F011071A5604
:10337000565656233256563F464D00208DF80000D3
:103380009DF8010000F0FE008DF8010045E09DF879
:10339000000000F0FC0040F001008DF800003CE06F
:1033A0009DF8000000F0FC0040F002008DF80000E5
:1033B00033E09DF8000000F0B30040F048008DF8C5
:1033C00000009DF8010040F080008DF8010024E02D
:1033D0009DF8000000F0B3008DF800009DF801009A
:1033E00000F07F008DF8010017E09DF8010040F02B
:1033F00002008DF8010010E09DF8010000F0FD00D2
:103400008DF8010009E09DF8000000F0CF0040F0C9
:1034100020008DF8000000E000BF00BF6B460122D5
:103420000021362002F065F80DF10103012211465A
:10343000362002F05EF838BD08B503208DF8010093
:1034400001208DF800006B4602220021362002F098
:1034500050F84FF4004206212D2002F01FF8012001
:1034600001F09CF80120FFF775FF08BD38B5044650
:10347000200A8DF80100E0B28DF800006B460222B0
:1034800004212D2002F035F803208DF800006B4652
:10349000012206212D2002F02CF800208DF80000DA
:1034A0006B46012206212D2002F023F80A212D204F
:1034B00001F0FAFD0546284638BD00002DE9FF5F02
:1034C00082B00021DDE90430020DDDF840B0034395
:1034D00018D044F61050A2F2FF324243151411984E
:1034E00001281FD0A5EB0B00401C5FEA000A4FF03B
:1034F00000064E4FDFF83891B046504615D5CAF158
:10350000000413E0119801244AA3012801D16FEAB5
:103510000B010298119AC0E90031C0E9024206B0DD
:10352000BDE8F09FCBF10000DFE704460021404AF0
:10353000491842EB0450CDE9001012E0E00707D033
:1035400032463B4640464946FCF7E4FF8046894602
:1035500032463B4610461946FCF7DCFF06460F464E
:103560006410002CEAD1DDE90401DDE90023BAF1A1
:10357000000F06DAFCF7CEFF42464B46FCF7CAFFC7
:1035800005E0FDF739F842464B46FDF735F80446AD
:103590000E460022284BFDF749F903D84FF0FF30C3
:1035A000014607E00022254B20463146FCF70BFF81
:1035B000FDF730FB102409E0002C0ADB0A2200236F
:1035C000FDF792F9039B30321A55641E50EA01024E
:1035D000F2D1641C039AC4F111031444119A012A14
:1035E00003D0012208430DD10AE0084304D0002093
:1035F0004FF0110B119072E7A3EB0B056D1E0DE060
:103600005B4504DD4FF0000205F1010504E003DA3B
:103610004FF00002A5F10105002AECD002981199A3
:10362000C0E90231C0E9004579E70000000014401C
:103630000000F03F300000000000F0430000E03FD9
:103640002DE9FF4F95B09B468946064600250FE2BF
:10365000252877D100242746F84A0121059400E067
:10366000044316F8013F203B01FA03F01042F7D162
:1036700030782A2811D06FF02F033078A0F1300273
:10368000092A16D8059A44F0020402EB820203EBE1
:1036900042021044761C0590EFE759F8042B05927E
:1036A000002A03DA504244F40054059044F0020426
:1036B000761C30782E2816D116F8010F44F0040439
:1036C0002A280DD06FF02F023078A0F13003092B9B
:1036D00009D807EB870302EB4303C718761CF3E70F
:1036E00059F8047B761C30786C280FD006DC4C2807
:1036F00017D068280DD06A2814D104E0742810D09F
:103700007A280FD10DE044F400140AE044F4801448
:1037100001E044F440147278824202D104F580142E
:10372000761C761C307866280BD013DC582877D0AE
:1037300009DC002875D04528F6D04628F4D0472863
:103740001AD19DE118E0632835D0642879D0652826
:1037500012D195E1702873D008DC6728F1D0692870
:103760006FD06E280DD06F2806D1B5E073282CD00D
:10377000752875D0782874D05A46179990476D1CD3
:1037800075E1C4F30250022809D003280DD0D9F8FE
:10379000001004280DD00D6009F1040967E1D9F883
:1037A0000010EA17C1E90052F6E7D9F800100D80C1
:1037B000F2E70D70F0E719F8041B8DF800100020F7
:1037C0008DF80100EA46012003E059F804AB4FF000
:1037D000FF3061074FF0000102D40DE008F1010154
:1037E0008846B9420FDA8045F8DB1AF8081000293C
:1037F000F4D108E008F1010188468142FADB1AF8A9
:1038000008100029F6D105985B46A0EB0807214671
:103810003846179A00F094FA284400EB080507E0B0
:103820004DE029E10DE01AF8010B5A46179990472F
:10383000B8F10108F7D25B4621463846179A13E1E2
:1038400042E00A220092C4F302524FF0000A022A18
:1038500008D059F804CB032A4FEAEC710AD00DE0E6
:1038600029E02AE009F1070121F00702F2E802C18C
:10387000914609E00FFA8CFC4FEAEC71042A03D15F
:103880004FFA8CFC4FEAEC71002907DA0A46002156
:10389000DCF1000C61EB02012D2202E0220504D5CF
:1038A0002B228DF80420012203E0E20701D0202220
:1038B000F7E7904659E00A2102E010220DE01021BE
:1038C0004FF0000A00910BE010224FF0000A44F084
:1038D00004040827009203E008224FF0000A009237
:1038E000C4F30252022A05D059F804CB0021032A5E
:1038F00008D009E009F1070121F00702F2E802C14E
:10390000914605E01FFA8CFC042A01D10CF0FF0C53
:103910004FF00008220728D5702806D0009B83F0BE
:10392000100353EA0A0305D00EE040228DF804206C
:10393000012208E05CEA010206D030228DF8042062
:103940008DF8050002229046009B83F0080353EA9D
:103950000A030AD15CEA010201D1620705D53022CF
:103960008DF804204FF001087F1E582804D034A0A1
:1039700003900EA802900DE036A0F9E7534660468A
:10398000009AFCF7B1FF84460398825C0298401EBF
:10399000029002705CEA0100F0D1029806A9081AB0
:1039A00000F1200A600702D524F4803400E00127EA
:1039B000574502DDA7EB0A0000E0002000EB0A01FA
:1039C000009005984144401A0590E00306D45B46F8
:1039D0002146179A059800F0B3F90544002706E040
:1039E00001A85A46C05D179990476D1C7F1C47453A
:1039F000F6DBE0030CD55B462146179A059800F0EC
:103A00009FF9054404E030205A46179990476D1CF1
:103A10000099481E00900029F5DC08E00298029900
:103A20005A460078491C0291179990476D1CBAF1CB
:103A30000001AAF1010AF1DC65E10000092801009A
:103A40003031323334353637383961626364656614
:103A500000000000303132333435363738394142D6
:103A6000434445460000000000F058F90544761C28
:103A7000307800287FF4ECAD19B02846BDE8F08F0F
:103A8000620700D4062709F1070222F0070CFCE8C0
:103A90000223E14603F000485FEA080C02D00FF26F
:103AA000702C0DE05FEA045C02D50FF2682C07E091
:103AB0005FEAC47C02D00FF2602C01E0AFF2700C20
:103AC0004FF0FF3823F00043CDF850C065280CD0EC
:103AD00006DC452809D046281DD047283DD13DE0C9
:103AE000662818D067287ED138E00021112F01DB2D
:103AF000112000E0781CCDE9000106A90EA8FFF70F
:103B0000DDFCDDE90F010E9A03910021009207F11F
:103B1000010A04914DE04FF000400097CDE90110FB
:103B200006A90EA8FFF7CAFCDDE90F0203920E9B5F
:103B300011990022DDF80CA00093049211B9791CB0
:103B400000EB010AB7EB0A0004D4C0F1FF3007F123
:103B5000010A0490AAEB0700019044E0012F00DA6B
:103B600001270021112F01DD112000E03846CDE9A9
:103B7000000106A90EA8FFF7A1FCDDE90F010E9ACE
:103B80000391002104910092BA4621070CD40399B5
:103B9000514500DA8A46BAF1010F05DD009AAAF113
:103BA0000101515C302908D0B84202DA10F1040F4B
:103BB00006DA0121CDE9011015E0AAF10101E9E7DA
:103BC000002805DC049901440491AAEB000102E0FD
:103BD000411C514500DD8A460499401A401C019061
:103BE0004FF000400290200704D40198504501DBBB
:103BF000CDF8048000208DF84F0002980DF14F079A
:103C0000B0F1004F25D02B200E9002984FF0020803
:103C100000280CDA404202902D200E9007E00A2185
:103C20000298FCF74BFE3031029007F8011DB8F105
:103C30000001A8F10108F2DC02980028EFD1791EFA
:103C40000E980870307800F0200040F0450007F82A
:103C5000020D12A8C01B00F107081498007800B1EB
:103C6000012000EB0A01019801EBE0710598414445
:103C7000401A401E0590E00306D45B462146179A81
:103C8000059800F05DF805441498007818B15A467C
:103C9000179990476D1CE00324D55B462146179A7F
:103CA000059800F04DF805441CE00498002807DB57
:103CB000DDE90301884203DD0098405C179901E0CB
:103CC000179930205A469047049805F10105401C89
:103CD00004900198401E019004D12E205A46179955
:103CE00090476D1CBAF10001AAF1010ADDDC05E084
:103CF00017F8010B5A46179990476D1CB8F100014F
:103D0000A8F10108F4DC5B462146179A0598ABE65A
:103D10002D0000002B000000200000002DE9F041E4
:103D2000044600251E461746880404D405E039469B
:103D30002020B0476D1C641EF9D52846BDE8F081EF
:103D40002DE9F041044600251E469046C80301D5E2
:103D5000302700E02027880404D505E04146384696
:103D6000B0476D1C641EF9D52846BDE8F0810A688D
:103D7000531C0B60107070472DE9F04D8D4F21F0F2
:103D8000004A86B005460C46BA452ADBAAEB070076
:103D900028430AD08848824501DC1AD1CDB106B04B
:103DA0002846BDE8F04DFFF789BA844A844B28467F
:103DB000FCF7B0FB07460E46824A834B2846214655
:103DC000FCF7A8FB06B03A463346BDE8F04DFCF7D9
:103DD000FABA0120FFF79CFA06B0BDE8F04DFFF7F4
:103DE00072BA7A48824542DABAF1795F0BDA28462C
:103DF000FFF7EEF9042808BFFFF772FA284606B06D
:103E00002146BDE8F08D2A460B461046FCF782FBA2
:103E1000834602466E480E460B4606217844FFF75D
:103E2000EFF95A463346FCF775FB804669488A46E7
:103E30005A46334604217844FFF7E2F95A4633469E
:103E4000FCF768FB00223B46FCF7BDFA02460B4636
:103E500040465146FCF7D0FB2A462346FCF75AFB66
:103E600006B02A462346BDE8F04DFCF7ACBA28461A
:103E700024F0004100223D463B46FCF748FB4FF052
:103E8000FF32FCF75FFE0646024653480F460B46DC
:103E900006217844FFF7B4F932463B46FCF73AFB7B
:103EA000CDE900014D4832463B4604217844FFF7F6
:103EB000A7F932463B46FCF72DFB00222B46FCF7C8
:103EC00082FA834602913046394602F054FC80461D
:103ED00043480D46504517DCDDE900015A46029B78
:103EE000FCF78AFB42462B46FCF714FB42462B4666
:103EF000FCF769FA0122FCF725FE304A304BFCF74B
:103F000003FB304A304B4CE04FF0000A52460B4660
:103F10004046FCF758FACDE9031052462B461046AE
:103F20001946FCF7F7FA32463B46FCF7F0FADDE9B2
:103F30000332FCF761FB06460F46DDE900015A46F5
:103F4000029BFCF759FB834600910122304639461B
:103F5000FCF7F8FD194A1A4BFCF7D9FA06460F464A
:103F6000012240462946FCF7EDFD5A46009BFCF72E
:103F7000D1FA32463B46FCF7C7FA06460F46012205
:103F800050462946FCF7DEFD0E4DDFF858802A46E4
:103F90004346FCF7BCFA32463B46FCF7B8FA2A46E1
:103FA0004346FCF7B4FA002CD8BF81F0004106B0BC
:103FB000BDE8F08D0000F03F0000F07F075C143397
:103FC00026A6913C182D4454FB21F93F0000E03F08
:103FD000383700004E370000C2360000D8360000E7
:103FE0003333EF3FFB21E93F2DE9F047ADF57C7D11
:103FF00006460F464FF0FF3800244FF0FA09A2465C
:1040000000254FF47A7102A8FCF7B5F83EA13046BE
:10401000FCF7BCF800B967E0002512E03B4850F817
:1040200035103046FCF7B2F804464CB1374951F828
:104030003500FCF7BDF80444A01B1FFA80FA02E02B
:104040006D1C0A2DEAD300BF0A2D00D34CE0207866
:104050003F2814D160780D2811D1A0780A280ED1FC
:104060002A4800EBC5004068D0B3284800EBC500E3
:1040700002AA4946436801209847804633E02078E9
:104080000D2811D160780A280ED1204800EBC50018
:10409000406828B31D4800EBC50002AA49464368A2
:1040A0000220984780461EE020783D2819D1641CE4
:1040B000A7EB0A0102AB2C222046CDF8009002F0BB
:1040C00080FB8146114800EBC500406840B10F48B5
:1040D00000EBC50002AA4946436803209847804682
:1040E00001E04FF0FF3800BFB8F1FF3F03D108A057
:1040F000FFF74AF802E009A0FFF746F840460DF541
:104100007C7DBDE8F087000041540000BC01002028
:104110000D0A4552524F520D0A0000000D0A4F4B36
:104120000D0A000070B504464FF0FF35FDF777FB30
:104130001B490968401AC82804D81A480088B0F5F5
:10414000007F04DB00201749088017490870FDF73D
:1041500066FB13490860134801880088401C114A17
:104160001080124844540A2C0ED10F4800780128C0
:104170000AD1104601880D48FFF736FF054600209A
:1041800009490870074908800D2C03D10120064910
:10419000087002E0002004490870284670BD000045
:1041A000100200200C02002014020020900F0020BA
:1041B00010B501210820FDF77DFF01210846FDF71C
:1041C00079FF01213448FDF7D5FAFF244FF400733D
:1041D000324A91151046FDF7D9FEC4B224B930A079
:1041E000FEF7D2FF002010BD31A0FEF7CDFF4FF447
:1041F00000432A4A91153348FDF7C8FEC4B224B9DA
:1042000031A0FEF7C1FF0020EDE734A0FEF7BCFFB0
:104210004FF40063214A02211046FDF7B7FEC4B2F5
:1042200024B933A0FEF7B0FF0020DCE735A0FEF78D
:10423000ABFF4FF48063194A08212248FDF7A6FE20
:10424000C4B224B934A0FEF79FFF0020CBE737A00B
:10425000FEF79AFF2023114A08211046FDF796FE2B
:10426000C4B224B936A0FEF78FFF0020BBE738A008
:10427000FEF78AFF1023094AD9021248FDF786FE8D
:10428000C4B224B937A0FEF77FFF0020ABE73AA005
:10429000FEF77AFF0120A6E700023000000C014083
:1042A000205042382D504239206661696C0D0A0059
:1042B0005042382D50423920737563636573730D16
:1042C0000A00000000080140205041382D504231C2
:1042D00035206661696C0D0A000000005041382DE0
:1042E0005042313520737563636573730D0A0000A6
:1042F000205042312D50423131206661696C0D0AE7
:10430000000000005042312D50423131207375635E
:10431000636573730D0A0000205041332D50423104
:1043200030206661696C0D0A000000005041332D99
:104330005042313020737563636573730D0A00005A
:10434000205042332D504235206661696C0D0A00C1
:104350005042332D50423520737563636573730D7E
:104360000A00000020504131352D50423420666152
:10437000696C0D0A00000000504131352D50423467
:1043800020737563636573730D0A000010B5FF2415
:1043900000F0D2FC00F0DDFC4FF480631A019111B3
:1043A0000801FDF7A7FDC4B224B90DA0FEF7ECFE8D
:1043B000002010BD0EA0FEF7E7FE4FF400631A01C7
:1043C00091110801FDF796FDC4B224B90DA0FEF7C6
:1043D000DBFE0020EDE70FA0FEF7D6FE00BFE8E70A
:1043E000494F20342D36206661696C0D0A000000AB
:1043F000494F20342D3620737563636573730D0A3E
:1044000000000000494F20352D37206661696C0D92
:104410000A000000494F20352D372073756363650E
:1044200073730D0A0000000070B504460D46164671
:1044300000200121564AD1726D230146401C0D31E6
:10444000535472230146401C0D315354022301463C
:10445000401C0D3153544F490B780146401C0D311F
:1044600053544D490B780146401C0D3153544A4971
:104470000988C1F307230146401C0D3153540A211A
:1044800094FBF1F1CBB20146401C0D3153540A218B
:1044900094FBF1F1C1F307230146421CD0B20D3168
:1044A0003B4A53540A2195FBF1F1CBB20146421C21
:1044B000D0B20D31364A53540A2195FBF1F1C1F3C4
:1044C00007230146421CD0B20D31314A53540A2110
:1044D00096FBF1F1CBB20146421CD0B20D312C4A11
:1044E00053540A2196FBF1F1C1F307230146421C04
:1044F000D0B20D31264A53540A2194FBF1F1CBB2CC
:104500000146421CD0B20D31214A53540A2194FB7A
:10451000F1F1C1F307230146421CD0B20D311C4A10
:1045200053540A230146421CD0B20D31184A535449
:104530000D230146421CD0B20D31154A5354114689
:10454000087300F10B011E2901DD00BFFEE71248D0
:1045500000780F4988700F480078C87000221F202B
:1045600000F0FBFF00211F2001F00AF8002000F0FE
:104570002BFF00BF00210F2000F096FD00F080000F
:104580000028F7D004480068401C0349086070BD4B
:1045900088000020E10300204001002070B504469F
:1045A00001F076FB051900BF01F072FB401B0028EB
:1045B000FADD70BD014651B1172001228240430946
:1045C0009B0003F1E023C3F8002100BF00BF704748
:1045D00010B51720FCF7EEFE044644B11720012168
:1045E0008140044A430942F8231000BF00BF20461F
:1045F00010BD000080E100E02DE9FC41002414E042
:104600004F4850F8240000280EDD4E4850F8240092
:104610004B4951F8241090FBF1F52146284600F053
:10462000DBFF484941F82400641C2D2CE8DB454B96
:104630009A6859681868FFF7F7FE00241CE04048A4
:1046400050F82400002816DD3E4951F82400FCF7FC
:1046500042F880463C49FBF778FE0546FCF7D3F864
:104660002246CDE9000139A13B48FEF79DFD3A49BC
:104670003AA0FEF789FD641C2D2CE0DB3048006871
:1046800000281BDD2F490868FCF725F807462E494E
:10469000FBF75BFE0446FCF7B6F805462A460B46D8
:1046A00030A12D48FEF780FD31A202210020FDF748
:1046B000EBFB294A02210020FDF7E6FB2048406879
:1046C00000281BDD1F494868FCF705F807461E490E
:1046D000FBF73BFE0446FCF796F805462A460B46D8
:1046E00025A11D48FEF760FD26A204210020FDF74C
:1046F000CBFB194A04210020FDF7C6FB1048806857
:1047000000281BDD0F498868FBF7E5FF07460E49C7
:10471000FBF71BFE0446FCF776F805462A460B46D7
:1047200011A10D48FEF740FD16A206210020FDF75D
:10473000ABFB094A06210020FDF7A6FBBDE8FC8182
:10474000F40900204009002000007A44616E2564CD
:104750003A25332E32666D00DC11002025730D0AD8
:1047600000000000616E303A25332E32666D000085
:104770002009092020200000616E313A25332E32B5
:10478000666D0000090920002DE9F04F91B0074641
:1047900000200E900F90002408E00EAA111904F1D9
:1047A0002802D0B200F0F8F8601CC4B2062CF4DB8A
:1047B000BDF938100811FBF78EFF83464FF07E518C
:1047C000FBF791FD8046BDF93A100811FBF783FF16
:1047D00083464FF07E51FBF786FD8146BDF93C10C4
:1047E0000811FBF778FF83464FF07E51FBF77BFD06
:1047F00082464046FCF707F802460B46CDE90C011D
:1048000058A0FEF7C1FC4846FBF7FDFF02460B46E9
:10481000CDE90C0156A0FEF7B7FC5046FBF7F3FFBD
:1048200002460B46CDE90C0154A0FEF7ADFC404614
:10483000FBF78CFFB0F1000B01DB594601E0CBF137
:1048400000010846FBF747FF80464846FBF77EFF1E
:10485000B0F1000B01DB594601E0CBF10001084645
:10486000FBF739FF81465046FBF770FFB0F1000BB4
:1048700001DB594601E0CBF100010846FBF72BFFB5
:1048800082465046FBF7BFFF00224FF08043CDE940
:10489000040101F003FACDE908014846FBF7B3FF34
:1048A00000224FF08043CDE9000101F0F7F9CDE996
:1048B00004014046FBF7A7FF00224FF08043CDE9FB
:1048C000000101F0EBF9CDE90201DDE90423FBF77A
:1048D0007AFDCDE90601DDE90823FBF774FDCDE99A
:1048E0000A0101F048FFCDE90C01FBF7B7FF0546CF
:1048F00029465046FBF7D8FF00D2AA462946504623
:10490000FBF723FD8346FBF77EFFCDE90401FFF7AC
:1049100033FA00224FF08043CDE90601FBF7FAFDA0
:10492000194A1A4BCDE90801FBF766FE0022184B25
:10493000CDE90A01FBF7EEFDCDE90C01FBF78EFF97
:10494000064631461348FBF7C8FC064600213046B0
:10495000FBF7A0FF00D200263E60002011B0BDE8AA
:10496000F08F00006163635F783A25660D0A0000EE
:104970006163635F793A25660D0A00006163635FD6
:104980007A3A25660D0A00001F85EB51B81E0940D2
:10499000008056400000B4422DE9F04104460D4627
:1049A0000026374F4FF0320800BF4FF40031384631
:1049B000FCF7AEFF0028F8D101213846FCF790FF44
:1049C00000BF30493846FCF7A3FF0028F9D0002289
:1049D00041463846FDF742F800BF2B493846FCF700
:1049E00041FF0028F9D021463846FDF740F800BFC6
:1049F0002549891C3846FCF735FF0028F8D00121ED
:104A00003846FCF76DFF00BF1E493846FCF780FFB3
:104A10000028F9D0012241463846FDF71FF800BFB3
:104A20001A493846FCF71EFF0028F9D000BF174985
:104A30003E313846FCF716FF0028F8D03846FDF71F
:104A400009F806464FF2FF713846FCF7F5FF0021E2
:104A50003846FCF7FBFE01213846FCF74DFF00BF4E
:104A600008490F313846FCF753FF0028F8D10021E0
:104A70003846FCF7EBFE2E700020BDE8F081000008
:104A800000540040010000108200070002000300F3
:104A900070B504460D462B46224632210248FCF7EB
:104AA000E9FF002070BD00000054004010B5372120
:104AB0002020FFF7EDFF03212120FFF7E9FFC021B0
:104AC0002220FFF7E5FF88212320FFF7E1FF7F2168
:104AD0003020FFF7DDFF02213220FFF7D9FF03214D
:104AE0003320FFF7D5FF5F212020FFF7D1FF10BD56
:104AF0002DE9F84F04464FF00009CA462578607941
:104B0000824931F810806078401E8149C6B208633E
:104B1000042D01D0072D01D1012000E000208346A3
:104B200020787B490873E07938B90846806940F4F9
:104B3000800088614FEAE80805E07548806920F444
:104B4000800073498861207A7149487308468069FA
:104B5000217A4FF4403202EA014108436C498861EE
:104B6000084600218269042000F0ABFC424642F670
:104B700004012E2000F092FC3046FEF7CFFB654882
:104B8000405D00EB800064494318052207212B207B
:104B900000F0AFFC614800EB0B0301220B21282041
:104BA00000F0A7FC5B48405D5D4951F820200C21D6
:104BB000282000F086FCE0795A4901EB8000A179B9
:104BC00030F811200221272000F068FC564830F808
:104BD00016200421272000F061FCE07928B9642226
:104BE0000621272000F05AFC1EE0A07804280DD1F1
:104BF0001020009010220621272000F04FFC6B4669
:104C000001222621272000F074FC0DE028200090CE
:104C100020220621272000F041FC6B46012226219C
:104C2000272000F066FC00BF404800EB0610E1784A
:104C300050F821200821272000F043FCB4F8090097
:104C400018B941F24100A4F80900B4F80920202164
:104C5000272000F023FC36480C210268232000F0B6
:104C600030FC3348001D30F816200421232000F0CA
:104C700015FCA07958B1E0792E4943180122002192
:104C8000212000F036FC4FF003094FF0010A05F037
:104C90000F00F02101EA0511084361784FF440222A
:104CA00002EA81410843910001EA095108434FF4A7
:104CB000003101EA4A41084321794FF0F86202EAE3
:104CC000815108436179520102EAC16140EA01075A
:104CD0003A4600211F2000F0F4FBA07861780843D9
:104CE00000040B49086108460069E1794FF400426D
:104CF00042EA413108430649086108460021026939
:104D0000082000F0DEFB0020BDE8F88F1C730008CF
:104D1000A0110020A0720008C0720008DE72000816
:104D2000A8720008EC720008F8720008FC72000813
:104D3000E0720008E872000810B50021362000F08B
:104D4000B3F9044644F440320021362000F0B9FBA8
:104D500010BD38B54FF440146B46042200212620C4
:104D600000F0C4F99DF80000E1B208438DF800009E
:104D70009DF80100C4F3072108438DF801009DF858
:104D8000020020EA14408DF802009DF8020040F075
:104D900010008DF802009DF8030040EA14608DF8C1
:104DA00003006B4604220021262000F0A2FB38BD40
:104DB00070B505460421362000F076F9044615B199
:104DC00044F4006401E024F4006422460421362007
:104DD00000F077FB70BD000038B540200090002146
:104DE0000E2000F061F90546FFF7F2FB04460022B1
:104DF00011460E2000F065FB6B46012200210D20BC
:104E000000F077FB094A00210F2000F05AFB00F068
:104E100029FB2A4600210E2000F053FB2046FFF715
:104E2000C9FB0020024981F82C0038BDF8FF272477
:104E3000A011002010B504462821262000F034F9E6
:104E4000204008B1012010BD0020FCE72DE9F74FFC
:104E500084B006468B4600245846FBF7D4FC00225B
:104E60003A4BCDE90001FBF755FBCDE90201FBF719
:104E700086FC8246BAF1FF0F01DD4FF0FF0A06986B
:104E8000012825D1042E02D0072E10D100E000BF4A
:104E90002F48855D00E0641C05EB05102D4901EBF2
:104EA0008000005D5045F6DBA4F11C090FE02A48A4
:104EB000855D00E0641C05EB850000EB451027498B
:104EC0000844005D5045F5DBA4F1170900BF27E059
:104ED000042E02D0072E11D100E000BF1C48855DD2
:104EE00000E0641C05EB8500C0EB85101C490844FC
:104EF000005D5045F5DBA4F11E0910E01648855D04
:104F000000E0641C05EB850000EBC500154901EBD2
:104F10004000005D5045F4DBA4F1110900BF00BF63
:104F20004846FBF7D8FB0390FBF76DFC0746884625
:104F30000D4A0E4B38464146FBF7ECFA07468846C9
:104F40003846414607B0BDE8F08F00000000104031
:104F500056730008F27300084E7300085E73000871
:104F6000E27400087A7400087B14AE47E17A843F4B
:104F70002DE9FC4104460420019000250027002073
:104F80003C494875086300213A4880F82510002004
:104F9000384981F82C0088834863886300F0A0F8C2
:104FA00034490860084600683349884202D08817AF
:104FB000BDE8FC810020FEF7CDF901AB0122002104
:104FC000242000F096FA1E20FEF750FA85B2280A37
:104FD000284988730420FEF749FA0746F8B270B1F1
:104FE000022000906B46012212212D2000F081FA50
:104FF0002048808B40F480501E49888300BF0620E3
:10500000FEF734FA1B4948600720FEF72FFA1949CA
:10501000886005F01F0008750846007D08B910205B
:1050200008751449087D00F0BDFA04F0010040B194
:10503000FEF702FA0F48808B40F400600D49888328
:105040000DE00521362000F019F806464FF6FF5016
:10505000064032460521362000F020FA00BF01202C
:10506000FEF778F90021042000F01EF8014988615C
:1050700000209DE7A01100203001CADEF8B50446EB
:105080000D464FF6FF76A9B2A0B26B46022200F0A1
:105090002DF8074637B99DF800009DF8011000EB88
:1050A000012086B23046F8BD2DE9F84305460E468C
:1050B0004FF0FF37B1B2A8B26B46042200F016F8E9
:1050C0008046B8F1000F08D1032404E01DF8040065
:1050D00000EB0727641E002CF8DA3846BDE8F88399
:1050E00010B500210846FFF7DFFF10BD2DE9F8439A
:1050F00006460C461746984600252CB9F2B22846BB
:105100006D1C0DF800201BE0F0B240F04002284674
:105110006D1C0DF800207F2C05DCE2B228466D1CCA
:105120000DF800200CE0E0B240F0800228466D1C33
:105130000DF80020C4F3C71228466D1C0DF800209E
:10514000A8B243463A46694601F09CFABDE8F883A6
:1051500070B504460D46164623462A4631461120B0
:10516000FFF7C4FF70BD10B5044623460522002199
:105170001520FFF7BBFF10BD10B5044623460522DE
:1051800000211720FFF7B2FF10BD38B504460020FC
:10519000009000F067F94FF480750CB145F400758C
:1051A0002A4600210D2000F079F9B4B16B460122A6
:1051B00003210F20FFF79AFF9DF8000000F0080080
:1051C00058B1FFF709FE4FF480752A4600210D20E3
:1051D00000F064F94FF0FF3038BD0020FCE7F8B56F
:1051E00005460E4646EA0504E0B28DF80000200AA6
:1051F0008DF80100200C8DF802006B460322082177
:10520000262000F076F9F8BDF8B505460E4646EAC8
:105210000504E0B28DF80000200A8DF80100200C92
:105220008DF802006B4603220C21262000F061F964
:10523000F8BD10B50446224601210A2000F041F9CC
:1052400010BD38B5044604F00100B8B36B46022225
:1052500000212620FFF74AFF9DF8010020F03C00C6
:105260008DF801009DF8010040F014008DF8010058
:105270000DF1010301221146262000F03AF96B4698
:10528000012202213620FFF731FF9DF8000040F097
:1052900084008DF800006B4601220221362000F0C8
:1052A00028F910208DF8000001208DF801006B46D0
:1052B00002222821362000F01CF915E0FFE704F057
:1052C000010088B96B46022200212620FFF70EFF5D
:1052D0009DF8010020F014008DF801006B460222B9
:1052E0000021262000F005F904F0020088B10F200B
:1052F0008DF800006B4601222A21362000F0F9F8D3
:1053000000208DF800006B4601222A21362000F093
:10531000F0F838BD70B5054600211A20FFF7C4FE2D
:1053200004466FF31304C5F313000443224600211F
:105330001A2000F0C6F870BD10B50446224641F6AA
:1053400004012E2000F0AAF810BD000038B5044674
:105350006B46012203210420FFF7C8FE002C16DD56
:10536000224600210C2000F099F89DF8000040F042
:10537000100000900F48806940F080500D4988610E
:105380006B4601220321042000F0B3F810E09DF8E1
:10539000000020F0100000900648806920F0805046
:1053A000044988616B4601220321042000F0A1F822
:1053B00038BD0000A011002010B50446224600218F
:1053C000182000F06BF810BDF8B504460025002049
:1053D0000090002604F0020058B1802000906B4637
:1053E000012200210D2000F084F801201C4981F8E1
:1053F0002C0004F0010028B39DF8000040F00600E6
:1054000000906B46012200210D2000F072F803216C
:105410000F20FFF733FE064606F4816008B9002529
:105420001BE0402000906B46012200210D2000F07F
:1054300060F80020FFF7BCFC0020094981F82C002F
:10544000451E0AE09DF8000040F0020000906B4607
:10545000012200210D2000F04CF82846F8BD000084
:10546000A01100201CB501AB012203210F20FFF782
:105470003DFE9DF8040000F080009DF8041001F04E
:105480004001B0EB410F08D0012000906B46012293
:1054900003210D2000F02DF800BF1CBDF8B5054616
:1054A0000E461446E0B28DF8000020128DF801007F
:1054B000B1B2A8B26B46022200F01BF8074638468C
:1054C000F8BD2DE9F84306460F461446002504E0D2
:1054D000E0B20DF80500240A6D1C042DF8DBB9B20A
:1054E000B0B26B46042200F004F880464046BDE8A6
:1054F000F8832DE9F84306460C46174698460025E2
:105500003CB9F0B240F0800228466D1C0DF8002036
:105510001BE0F0B240F0C00228466D1C0DF80020E0
:105520007F2C05DCE2B228466D1C0DF800200CE053
:10553000E0B240F0800228466D1C0DF80020C4F354
:10554000C71228466D1C0DF80020A8B243463A4603
:10555000694601F07DF9BDE8F88370B504460E4652
:1055600015462819B0F5806F02DD4FF0FF3070BD91
:10557000A21E334629460920FFF7BBFF0020F6E7AD
:1055800070B504460D4606480069204340EA85563A
:10559000324600210820FFF794FF002070BD000074
:1055A000A011002038B504466B4601220E212B20A5
:1055B000FFF79CFD9DF8000020F01F00009004F014
:1055C0001F009DF80010084300906B4601220E2139
:1055D0002B20FFF78EFF38BD70B504460022002354
:1055E000002C2ADD1E4850F8215050F82100401CA4
:1055F0001B4E46F8210001EB81001A4E06EB80009D
:1056000040F82540164850F82100052803D1002015
:10561000134D45F82100002209E001EB8100114DF6
:1056200005EB800050F822000344501CC2B2052A4A
:10563000F3DB052093FBF0F070BD002209E001EBE5
:105640008100084D05EB800050F822000344501CF7
:10565000C2B2052AF3DB052093FBF0F0ECE7000073
:105660000C0B0020A80A002010B500220A60835C01
:10567000D400A3400C68521C23440B60042AF6DBC0
:1056800010BD70B50146002005E00A54140A44EA32
:1056900003621B0A401C0428F7DB70BD70B504468A
:1056A0000D4640210748FDF779FCE1B20548FDF7BA
:1056B00058FD00BF40210348FDF785FC0028F9D0C4
:1056C000204670BD003801407CB500242546684660
:1056D000FFF749FD042069462D0245EA14652202C0
:1056E0000C5C1443401EF7D5204629467CBD7CB592
:1056F000002425466846FFF73FFD042069462D0239
:1057000045EA146522020C5C1443401EF7D520467E
:1057100029467CBD2DE9F0478046894615461E4640
:105720004FF0000A0024642400BF4FF400314046CB
:10573000FCF7EEF818B1201EA4F10104F5D1012107
:105740004046FCF7CDF8642400BF46494046FCF7CC
:10575000DFF818B9201EA4F10104F6D16424002258
:1057600049464046FCF77AF900BF3F494046FCF7FE
:1057700079F818B9201EA4F10104F6D1002C13DC2D
:1057800001214046FCF7B8F800BF36490F314046CA
:10579000FCF7BEF80028F8D100214046FCF756F887
:1057A0004FF0FF30BDE8F087642401214046FCF74C
:1057B00097F800BF2B494046FCF7AAF818B9201EFD
:1057C000A4F10104F6D16424012249464046FCF7C5
:1057D00045F900BF25494046FCF744F818B9201E9A
:1057E000A4F10104F6D100271AE0642400BF1F4988
:1057F0003E314046FCF736F818B9201EA4F10104EA
:10580000F5D14046FCF726F928706D1C4FF4006175
:105810004046FCF711F901214046FCF717F87F1CC0
:10582000701EB842E1D84046FCF714F928704FF2D8
:10583000FF714046FCF700F900214046FCF706F8EE
:1058400001214046FCF758F800BF06490F31404699
:10585000FCF75EF80028F8D100214046FBF7F6FF80
:1058600050469FE70100001082000700020003007D
:105870002DE9F0410746884614461D46002006469D
:105880000BE022784146384600F00CF8641C42F2E6
:105890001070FCF75FF9701C0646AE42F1D3BDE80C
:1058A000F08100002DE9F04106460F461546002420
:1058B00001213046FCF714F8642400BF2549304626
:1058C000FBF7D0FF20B9201EA4F101018CB2F5D165
:1058D000002239463046FCF7C1F814B900201E49B1
:1058E0000860642400BF1D493046FBF7BBFF20B9A8
:1058F000201EA4F101018CB2F5D129463046FCF7F7
:10590000B6F8642400BF1549891C3046FBF7AAFF8E
:1059100020B9201EA4F101018CB2F4D1012130463E
:10592000FBF7EAFF642400BF0D493046FBF7F0FFA8
:1059300020B1201EA4F101018CB2F5D10021304626
:10594000FBF784FF42F22830FCF704F90020BDE8A1
:10595000F081000001000300D8030020820007004E
:10596000100000102DE9FC4700260027B046B14684
:10597000B24600F06DF974A0FDF706FC00F0C2FE1F
:1059800000F0F4FE0120FFF7F3FA401CD8B973A031
:10599000FDF7FAFB77A200210846FCF775FA11E043
:1059A0004FF400517648FBF738FF4FF47A70FEF75A
:1059B000F5FD4FF400517248FBF72DFF4FF47A705C
:1059C000FEF7ECFDECE700F0CCFE6E48FFF790F838
:1059D0000120FFF736FC48F2B600FFF7ADFC0020CF
:1059E000FFF7EAFC68A200210846FCF74DFA69A01F
:1059F000FDF7CAFB6BA0FDF7C7FB72497248734AFB
:105A0000C2E9001072497348C2E902100020106117
:105A1000506100217048C2E9061000226B48026202
:105A200042620020694A9062D062116351639163BF
:105A3000D16310460164416448F27004002567494F
:105A400003C9CDE90001032269466548FBF72DFD36
:105A5000BDF80000012802D16249088009E0BDF8C4
:105A6000000018B900205F49088002E001205D496C
:105A700008805C48008801281DD1BDF8020000287C
:105A80000BDBBDF80200FF2807DCBDF8020055491A
:105A9000488008468078544908705348017853A0DC
:105AA000FDF772FBFBF770FC56A200210846FCF7DD
:105AB000EBF9FBF769F94B480088002841D1BDF8A4
:105AC000020000280FDBBDF80200FF280BDCBDF848
:105AD000020044494880084680784E4908700846CC
