:020000040800F2
:100000000018002045010008511B0008BD1700081A
:100010004D1B0008411300088B3000080000000051
:100020000000000000000000000000008D25000816
:100030004513000800000000C11F00080527000844
:100040005F0100085F0100085F0100085F01000810
:100050005F0100085F0100085F0100085F01000800
:100060005F0100085F0100085F0100085F010008F0
:100070005F0100085F0100085F0100085F010008E0
:100080005F0100085F0100085F0100085F010008D0
:100090005F0100085F0100085F0100085F010008C0
:1000A0005F0100085F0100085F0100085F010008B0
:1000B0005F0100085F0100085F0100085F010008A0
:1000C0005F0100085F0100085F0100085F01000890
:1000D0005F010008812E00085F0100085F01000831
:1000E0005F0100085F0100085F0100085F01000870
:1000F0005F0100085F0100085F0100085F01000860
:100100005F0100085F0100085F0100085F0100084F
:100110005F0100085F0100085F0100085F0100083F
:100120005F0100085F0100085F0100085F0100082F
:10013000DFF80CD000F050FD00480047BD57000824
:10014000001800200648804706480047FEE7FEE703
:10015000FEE7FEE7FEE7FEE7FEE7FEE7FEE7FEE777
:100160001527000831010008D2B201E000F8012B88
:10017000491EFBD270470022F6E710B513460A4627
:1001800004461946FFF7F0FF204610BD30B505467E
:100190002A460B4612F8010B13F8014B08B1A04296
:1001A000F8D01CB1002802D06D1CF1E7284630BD04
:1001B000421C10F8011B0029FBD1801A704730B592
:1001C00004460020034600E05B1C934203D2E05C3F
:1001D000CD5C401BF8D030BD70B50F4D00B928681C
:1001E000002412E00A4602E09E4203D0521C13781B
:1001F000002BF9D1DAB2224305D02BB124B1002172
:1002000000F8011B04E00446401C0678002EE9D1EA
:100210002860204670BD0000C804002070B5064666
:1002200002F06EFF046805460A220021304600F005
:100230009DFB2C6070BDF0B480EA0102D40F420037
:10024000B2EB410F02D20246084611464A0042D0A4
:10025000C30DDDB2C1F3C752AD1A202D35DAC1F39B
:10026000160141F4000204B15242C5F1200602FA1F
:1002700006F12A411044B3EBD05F23D0C4B1012D65
:10028000A0EBC35009DCF0BC4FF0004202EAC352BD
:10029000DBB200F5000000F0AABB400000F1807066
:1002A00000EBC350A0F1807040EAD170490009E032
:1002B000490841EAC071A0EBC35000F500004008B6
:1002C00000EBC350F0BC00F089BB6142012202EB9D
:1002D0004101001BF6E7F0BC704781F00041AAE73E
:1002E00080F00040A7E730B480EA010202F0004548
:1002F00030F0004221F0004013D090B1C30DD40D76
:10030000C2F31601C0F31600E41A41F4000140F4F0
:1003100000027D34914201D3641C00E04900002CAE
:1003200002DA30BC002070474FF4000000239142F5
:1003300001D3891A034340084FEA4101F7D151B173
:10034000914202D14FF0004105E002D24FF001018D
:1003500001E06FF0010103EBC450284430BC00F011
:100360003DBB2DE9FE4F804681EA0300C00F0C46DD
:10037000009021F0004123F00045B8EB0200A941B4
:1003800005D24046214690461C460B46024623F0C5
:100390000040104347D0270DC7F30A00C3F30A51AA
:1003A0000290401A019040286BDAC3F3130040F426
:1003B000801B0098924620B10023D2EB030A63EB26
:1003C0000B0B01985946C0F14002504600F09DFACF
:1003D00006460D4650465946019A00F0B5FA10EB14
:1003E00008006141002487EA115284EAE7731A4346
:1003F00040D0009A62B3019A012A4FEA075215DCF5
:10040000001B61EB02014FF0004202EA0752CDE906
:100410000042001C41F5801132462B4600F024FBBF
:1004200003B0BDE8F08F40462146F9E7001B61EBC1
:100430000201001C41F5801300185B412018A2F551
:10044000001747EB030140EAD570B6196D4111E082
:100450006D084FEA360645EAC0754FEA0752001BA1
:1004600061EB0201001C41F5801149084FEA3000A0
:100470000019514132462B4603B0BDE8F04F00F061
:10048000E4BA0098012240000023D0EB020263EBA3
:10049000E073009821464FEAE074B8EB000061EB8E
:1004A0000401E9E783F000435BE781F0004158E78E
:1004B0002DE9FE4F81EA030404F0004421F00041DD
:1004C00000944FF0000B23F0004350EA01045ED08B
:1004D00052EA03045BD0C3F30A54C1F30A552C4417
:1004E000A4F2F3340194A0FB0254C1F3130141F4CC
:1004F0008011C3F3130343F4801301FB024400FB98
:10050000034E840A970A44EA815447EA8357A4FBBE
:10051000076802958D0A05FB07854FEA932C04FBBB
:100520000C542705029D4FEA065847EA1637B5EBEB
:1005300008056EEB070C870E920E47EA811742EA18
:100540008312A7FB0201B6EB0B0164EB00042B0D39
:1005500043EA0C335E1844EB1C50DA465146E7FB85
:100560000201C5F313044FEA0B3343EA14534FEA75
:100570000432019C43EA0603A4F10C040294009C9B
:10058000CDE900B400F070FA03B0BDE8F08F0020B0
:100590000146F9E72DE9F04D81EA030404F0004B30
:1005A00021F0004514464FF0000A23F0004150EAC4
:1005B000050220D054EA01021DD0C5F30A570246B5
:1005C000C5F31303C1F31300C1F30A5640F48015B9
:1005D00043F48013A7EB0608101BD64608F2FD383B
:1005E00073EB050002D308F1010801E092185B41AA
:1005F000B8F1000F03DA00200146BDE8F08D0020BD
:100600004FF48011064684460EE0171B73EB050776
:1006100005D3121B63EB050306434CEA010C4908A2
:100620004FEA300092185B4150EA0107EDD152EADF
:10063000030012D082EA040083EA0501084305D0D2
:10064000101BAB4106D20122002306E000224FF02E
:10065000004302E06FF0010253101AEB06004CEB6E
:10066000085110EB0A0041EB0B01BDE8F04D00F022
:10067000ECB970B521F0004303430CD0C1F30A5527
:100680000024D5EB040564EB0403D617AD1AB3417F
:1006900002DB0020014670BD201841EB025170BD05
:1006A000C10F80EAE0700844CA079623002100F0D9
:1006B0009EB996230022114600F099B90EB5C10FDC
:1006C00080EAE0700844CA07002140F233438DE815
:1006D0000E000A460B4600F0C7F903B000BD0EB588
:1006E00040F2334102910021CDE900110A460B4648
:1006F00000F0BAF903B000BD3EB5CA17CB0F002415
:1007000050405140C0186141DA0740F23343009431
:10071000CDE901232246234600F0A6F903B030BDFF
:1007200000F0004220F00040C10DC0F3160040F47C
:1007300000007F2901DA00207047962903DCC1F10F
:100740009601C84001E096398840002AF4D0404222
:10075000704770B5C1F30A5201F000450024C1F39F
:10076000130140F2FF3341F480119A4201DA002074
:1007700070BD40F233439A42A2F2334203DC52424C
:1007800000F0D2F800E090402C43F1D0404270BD20
:1007900070B5C1F30A5201F000450024C1F3130102
:1007A00040F2FF3341F480119A4202DA0020014600
:1007B00070BD40F233439A42A2F2334203DC52420C
:1007C00000F0B2F801E000F0A0F82C43F0D00023D4
:1007D000D0EB030063EB010170BD00F0004230F08C
:1007E00000400AD0C10D01F56071C0F3160042EA65
:1007F0000151C2084007114370470020014670476D
:1008000030B5041E71F1000404DB4FF00044404297
:1008100064EB0101141E73F1000405DB1C464FF06C
:100820000043524263EB0403994208BF904230BD3B
:1008300001F0004330B421F0004150EA010206D03B
:100840000A0DA2F56072C1F31301002A02DC30BC6C
:1008500000207047440F44EAC104C100E01830BCD6
:1008600000EBC25000F0BAB8002801DBC0F1004034
:10087000002901DBC1F100418842704730B50B46C9
:10088000014600202022012409E021FA02F59D42C0
:1008900005D303FA02F5491B04FA02F52844151E94
:1008A000A2F10102F1DC30BD2DE9F05F0546002028
:1008B00092469B4688460646814640241BE02846D1
:1008C00041464746224600F02FF853465A46C01A82
:1008D000914110D311461846224600F016F82D1A01
:1008E00067EB01084F4622460120002100F00DF879
:1008F00017EB00094E41201EA4F10104DFDC48463D
:1009000031462A464346BDE8F09F202A04DB203AC0
:1009100000FA02F1002070479140C2F1200320FA52
:1009200003F3194390407047202A04DB203A21FA50
:1009300002F00021704721FA02F3D040C2F12002F8
:100940009140084319467047202A06DBCB17203A0E
:1009500041FA02F043EAE07306E041FA02F3D040C4
:10096000C2F1200291400843194670472DE9F04733
:1009700091460F4680460446002614F8015B2DB1CF
:1009800000F03CF90068405DC007F6D12B2D02D085
:100990002D2D18D0641E4A463946204600F032F903
:1009A00027B13968A14201D1C7F8008071054FF025
:1009B00002040BD54042002803DD02F0A1FB0460D5
:1009C000A007BDE8F08746F48066E4E70028F8DA7F
:1009D00002F096FB04606FF00040F2E70029A8BF28
:1009E0007047401C490008BF20F00100704710B458
:1009F000B0FA80FC00FA0CF050EA010404BF10BC0D
:100A0000704749B1CCF1200421FA04F411FA0CF139
:100A100018BF012121430843A3EB0C01CB1D4FEA72
:100A200000614FEA102042BF002010BC704700EB6D
:100A3000C35010440029A4BF10BC7047401C49009B
:100A400008BF20F0010010BC704710B5141E73F1F0
:100A5000000408DA401C41F1000192185B411A437E
:100A600001D120F0010010BD2DE9F04D92469B46CA
:100A700011B1B1FA81F202E0B0FA80F22032904670
:100A8000FFF743FF04460F4640EA0A0041EA0B0124
:100A900053465A46084313D0114653EA010019D071
:100AA000C8F140025046FFF73FFF05460E4650464C
:100AB00059464246FFF729FF084305D0012004E0CC
:100AC00020463946BDE8F08D0020054346EAE07631
:100AD0002C4337430A986305E40AA0EB0800002280
:100AE000FD0A44EA47540A3002D500200146E9E7EE
:100AF000010510196941DDE9084500196941BDE8A2
:100B0000F04DA2E72DE9F04D00231A461B1A8A4149
:100B100003DB00200146BDE8F08DC1F30A52C1F3AA
:100B2000130141F480154FF0000BD10702D10018DA
:100B30006D41521E0027044640F2FF11384601EB7A
:100B4000620A3E468046024600204FF48011FFF7BD
:100B5000EBFEC2197141BB1846EB0100B4EB030C6C
:100B600075EB000C04D3E41A65EB000517460E463E
:100B7000241908F101006D4180463428E3DDF9199C
:100B800046EB0600091BA84103D24FF0FF32134683
:100B900001E0002213461BEB070046EB0A51BDE8BB
:100BA000F04DFFF752BFC1F30A52C1F3130140F2F7
:100BB000FF3341F480119A4202DA00200146704767
:100BC00040F233439A42A2F2334202DC5242FFF730
:100BD000ABBEFFF79ABE0000064C074D06E0E0688A
:100BE00040F0010394E8070098471034AC42F6D374
:100BF000FFF7A2FA6073000880730008004870478E
:100C0000EC7200082DE9F05F824600780027154657
:100C10008B460AF10104B946302801D09DB113E09A
:100C200014F8010B0127782803D0582801D045B1CA
:100C30000AE00DB1102D07D10027102514F8010B83
:100C400002E0082500E00A250026B0460EE005FB7C
:100C5000080005FB06F1012701EB10461FFA80F89A
:100C6000B6F5803F00D3B94614F8010B294600F0D1
:100C700018F80028EBDABBF1000F05D00FB1641EA5
:100C800000E05446CBF80040B9F1000F06D002F066
:100C900037FA02210160C81EBDE8F09F48EA06400D
:100CA000FAE73A2800D2303820F02002412A01D356
:100CB000A2F13700884201D34FF0FF30704770B582
:100CC0008D1810F8014B14F0030201D110F8012B1C
:100CD000231106D110F8013B03E010F8016B01F875
:100CE000016B521EF9D1ABB110F8012B04F00C04CA
:100CF0008A1A0C2C03D0A2EB84129B1C08E010F87B
:100D0000014BA2EB0422F8E712F8014B01F8014B6A
:100D10005B1EF9D5A942D4D3002070BDA84EA94CC2
:100D2000A94F90B04FF02D0B4FF4814A4FF00009BE
:100D3000002004F047FA002004F063F900210F209E
:100D400004F0EEF83042A060F8D0208940047DD550
:100D5000524600210F2004F0F0FA0021102004F088
:100D6000DFF840B2B0F5806F04DC81B20022964813
:100D700004F02AF9B9785846B1FBF0F20BFB1212D5
:100D800023799A42D4D1B1FBF0F20BFB12100E90F2
:100D9000FD788C4987F80290C84687F803900A22AC
:100DA00043318948FFF70BFA80B186490A22853121
:100DB0008548FFF704FA21790843B9D1F87A012868
:100DC0007DD0B87A814905F081FBB1E704F0B8FB2A
:100DD000C4E904014FF4FA7004F0D8F940F6E44095
:100DE00004F0F0F9774821784F3000228170C57007
:100DF00001460F2004F0EDFA00210F2004F0FCFA68
:100E0000022004F01DFA00210F2004F089F830427E
:100E1000A060F8D02089400499D5524600210F20C7
:100E200004F08BFA0021102004F07AF800F07F0122
:100E3000182903DC0022644804F0C6F887F8028011
:100E4000F9784046A942C0D1F87000E0ABE05D49B6
:100E50000A225E315C48FFF7B2F90028B5D104F0F0
:100E600082FBC4E9060104F06BFBC4E908015648A3
:100E70000CA90A3004F034FB53480DA90E3004F0DD
:100E80002FFB514807A9123004F02AFB2169089171
:100E9000D4F81880216A02910D980C990190401A9B
:100EA000FFF71DFCCDE905100299A1EB0800FFF743
:100EB00016FCCDE9031007990198081A00E078E0C4
:100EC000FFF70DFCCDE901100899A8EB0100FFF731
:100ED00006FC08910090DDE90510DDE90332FFF71B
:100EE00040FADDE90132FFF73CFA089B009AFFF770
:100EF00038FACDE90910DDE90110089B009AFFF7E7
:100F0000D7FA01918046DDE90510DDE90332FFF7EC
:100F1000CFFA4246019BFFF7C5FADDE90932FFF738
:100F200039FBFFF735FCFFF7E7FB294A294BFFF7B1
:100F3000BFFA4FF09852284BC4E90A01FFF7B8FAFC
:100F4000C4E90C01FFF774FC1E4B014638335A7894
:100F5000187803F0B7FED4E90C23FFF7A6FA0022B5
:100F60001E4BC4E90C01FFF7A3FAFFF7F2FB642262
:100F700090FBF2F3134976318B7290FBF2F302FB94
:100F80001300C8720E98087320788870CD70002204
:100F90000F2004F01EFA00210F2004F02DFA00208B
:100FA00004F04EF9C4E60E4A00210F2004F0C5F902
:100FB000BEE60548FD70397B0D3002F05AF8B7E601
:100FC00000D0272418020020E4110020C4040020CF
:100FD000FA48CE3B1835B13D19DDB141000059400A
:100FE0000090272470B504460D461646022C0AD1FF
:100FF00003F050F908B9E01E70BD03F05DF828B9A0
:101000004FF0FF30F8E7032C00D000BF0120F3E7DA
:101010002DE9FC41054688461646022D07D142209F
:101020000190012201A92C4800F03AFA51E0032D69
:1010300035D1002729A13068FFF7CEF8074638469A
:10104000FFF7ECF884B2002000900190012C03D14E
:101050000120ADF8000008E01CB90020ADF8000048
:1010600003E04FF0FF30BDE8FC8100271BA100200A
:10107000FFF7B2F807463846FFF7D0F884B2002CE5
:1010800004DBFF2C02DCADF8024002E04FF0FF3041
:10109000E9E702226946104800F002FA19E0012D42
:1010A00017D1002000900190032269460A4800F001
:1010B000C6F9BDF800100AA001F0EAFFBDF8021061
:1010C0000AA001F0E5FFBDF804100BA001F0E0FF5D
:1010D00000BF0120C7E70000000001082C0000004D
:1010E00062756666303A25640D0A000062756666B0
:1010F000313A25640D0A000062756666323A25644D
:101100000D0A00000346022B02D0032B00D000BFC3
:10111000012070477CB504460D461646022C09D1C5
:10112000074903C9CDE9000103226946054800F0DB
:10113000B7F902E0032C00D000BF01207CBD000005
:10114000D86800080000010870B504460D46164630
:10115000022C11D10BA001F09BFF00BF0B480068CF
:1011600000F4E0600A490843001D08490860BFF325
:101170004F8F00BF00BFFEE7032C00D000BF01204F
:1011800070BD00000D0A4F4B0D0A00000CED00E091
:101190000000FA052DE9F84304460F469046022C5C
:1011A0001CD100200090684601F04EF80098FFF72F
:1011B00014FB05462A460B460BA001F069FF0020F0
:1011C0000090684600F0E4FF0098FFF706FB054634
:1011D0002A460B4606A001F05BFF02E0032C00D07C
:1011E00000BF0120BDE8F883543A25660D0A0000CF
:1011F000483A25660D0A00002DE9F84304460F46DB
:101200009046022C0ED100200090684603F040FA70
:101210000098FFF7E2FA05462A460B4604A001F0C3
:1012200037FF02E0032C00D000BF0120BDE8F883A7
:10123000616E676C653A25660D0A00002DE9F04184
:10124000044688461646022C18D0032C15D10027D8
:101250000BA13068FEF7C0FF07463846FEF7DEFFF9
:1012600085B2052D04DB322D02DC0648056003E063
:101270004FF0FF30BDE8F08100E000BF0120F9E74A
:101280002C000000300100202DE9F0410446884682
:101290001546022C1CD0032C19D100270DA128685B
:1012A000FEF79AFF07463846FEF7B8FF86B2012ED2
:1012B00003D101200849087008E01EB90020064942
:1012C000087003E04FF0FF30BDE8F08100E000BFA0
:1012D0000120F9E72C000000B401002070B504469D
:1012E0000D461646022C06D0032C04D0012C02D148
:1012F00002A001F0CDFE012070BD00004149542D37
:10130000425530312D444220563130302054323055
:1013100032302D352D31370D0A000000002000BF7E
:1013200007E00021044A42F82010044A42F8201045
:10133000401C2D28F5DB704738090020EC090020FF
:1013400000BFFEE770470000014600200022044B6A
:101350001B6803EA01020AB1012000E00020704787
:101360000004014030B5044604254FF4302000F05D
:1013700083F80546042D17D10C48006940F002009F
:101380000A49086108464461006940F0400008616C
:101390004FF4302000F070F805460448006941F62B
:1013A000FD71084001490861284630BD0020024017
:1013B00004200B49C96801F0010109B101200EE0C8
:1013C0000749C96801F0040109B1022007E0044996
:1013D000C96801F0100109B1032000E00420704742
:1013E000002002400348006940F080000149086184
:1013F000704700000020024070B504460D460426E8
:10140000F00200F039F80646042E11D109480069AF
:1014100040F00100074908612580F00200F02CF837
:1014200006460448006941F6FE710840014908611A
:10143000304670BD0020024001460888704730B534
:1014400003460C461546002207E003EB4200FFF777
:10145000F3FF24F81200501C82B2AA42F5DB30BD23
:1014600002480349486003484860704723016745C4
:1014700000200240AB89EFCD00B502460423FFF700
:1014800097FF034603E0FFF793FF0346521E012B2D
:1014900001D1002AF7D102B90523184600BD00008A
:1014A0002DE9F047054688461646B5F1006F04D38E
:1014B00005EB46001049884201D3BDE8F087FFF7ED
:1014C000CFFFA5F100694FEAD9274FF0006000EB8C
:1014D000C72A5046FFF746FF002407E038F81410EB
:1014E00005EB4400FFF788FF601C84B2B442F5DBD3
:1014F000FFF778FF00BFE0E70000080808B501210A
:101500007D2000F07FFD4FF6FF70ADF80000002059
:101510008DF803006946314800F06AF869463048A2
:1015200000F066F869462F4800F062F869462E48D8
:1015300000F05EF869462D4800F05AF80420ADF836
:1015400000008DF803006946254800F051F849F67F
:101550008150ADF8000004208DF803006946214851
:1015600000F046F84FF4EC50ADF8000004208DF880
:10157000030069461B4800F03BF84FF40040ADF80B
:10158000000004208DF803006946144800F030F88C
:101590000E20ADF8000010208DF8030003208DF818
:1015A000020069460D4800F023F842F20800ADF849
:1015B000000010208DF8030003208DF8020069461A
:1015C000084800F015F80021012000F09DF84FF4C4
:1015D0000051044800F0EBF8002008BD000801406D
:1015E000000C0140001001400014014000180140AF
:1015F0002DE9F041024600250026002000230024AA
:10160000002791F803C00CF00F0591F803C00CF00F
:10161000100CBCF1000F03D091F802C04CEA050594
:1016200091F800C0BCF1000F31D0146800202BE00D
:101630004FF0010C0CFA00F3B1F800C00CEA0306FD
:101640009E4220D183004FF00F0C0CFA03F7BC43ED
:1016500005FA03FC4CEA040491F803C0BCF1280F1E
:1016600006D14FF0010C0CFA00FCC2F814C00AE0DD
:1016700091F803C0BCF1480F05D14FF0010C0CFAF2
:1016800000FCC2F810C0401C0828D1D31460B1F887
:1016900000C0BCF1FF0F34DD546800202EE000F1E3
:1016A000080C4FF0010808FA0CF3B1F800C00CEA7E
:1016B00003069E4221D183004FF00F0C0CFA03F772
:1016C000BC4305FA03FC4CEA040491F803C0BCF1E6
:1016D000280F05D100F1080C08FA0CF8C2F81480A4
:1016E00091F803C0BCF1480F07D100F1080C4FF08E
:1016F000010808FA0CF8C2F81080401C0828CED364
:101700005460BDE8F0810000F0B50A4600230024D3
:101710000021002500F00046B6F1004F02D11D4E19
:10172000F16901E01B4E7168C0F3034583B200F418
:101730004016B6F5401F08D121F07061154E76684D
:1017400026F07066134F7E6012E000F48016B6F546
:10175000801F06D1032606FA05F4A14341F070610B
:1017600006E0460D360103FA06F6B14341F070611A
:1017700022B1460D360103FA06F6314300F0004669
:10178000B6F1004F02D1034EF16101E0014E7160EC
:10179000F0BD0000000001400246002093680B40AD
:1017A0000BB1012000E000207047416170470161EA
:1017B000704710B504F098F910BD000002A001F0C8
:1017C00067FC00BFFEE70000486172644661756C0B
:1017D000745F48616E646C6572200D0A0000000041
:1017E00021B1028842F48062028004E002884FF650
:1017F000FF331A400280704770B50246002400256E
:1018000000230020958A138B1B0445EA030626F06B
:101810007F4404EA01068E4201D1012000E000204D
:1018200070BD21B1028842F00102028004E002880A
:101830004FF6FE731A4002807047000010B5044650
:101840000B48844209D10121480500F0CBFB00215F
:101850004FF4001000F0C6FB08E00121880500F0FD
:10186000C1FB00214FF4800000F0BCFB10BD000064
:101870000054004021B1028842F48072028004E0EA
:1018800002884FF6FF631A400280704721B1028838
:1018900042F40072028004E002884FF6FF531A40BF
:1018A000028070470CB5024600200023019300938C
:1018B00000920B0F019321F07F41019B1BB1009B14
:1018C0001433009303E0090C009B18330093009B32
:1018D0001B680B400BB1012000E000200CBD000094
:1018E0002DE9F04385B004460D460026B146042795
:1018F000DFF8CC80A6884FF6C0700640684600F03E
:10190000A1FBDDF808802F48B8FBF0F01FFA80F942
:1019100046EA0906A68020884FF6FE71084020801E
:1019200000262949286888420CD828684000B8FB5E
:10193000F0F087B2042F00DA04273E4309F10100DA
:10194000208427E0E8884BF6FF71884206D128689A
:1019500000EB4000B8FBF0F087B209E0286800EB2C
:10196000C00101EB0010B8FBF0F087B247F48047EC
:10197000C7F30B0008B947F0010747F400400643DE
:101980004FF4967009FB00F04FF47A7190FBF1F080
:10199000401C2084A683208840F0010020802688F7
:1019A0004FF6F5300640A88869890843064326802B
:1019B000A88929890843208105B0BDE8F08300008B
:1019C00000127A0040420F00A0860100B1F5006FBE
:1019D00004D1028842F40062028004E002884FF2DF
:1019E000FF731A40028070470146088AC0B27047F0
:1019F00012B141F0010102E04FF6FE73194001827D
:101A000070470182704700002DE9F04788461D4667
:101A1000164681460121FFF72DFF294F64243946E0
:101A20004846FFF7E9FE10B9641EA4B2F7D20022BF
:101A300041464846FFF7DCFF14B922490020086000
:101A4000214F642439464846FFF7D6FE10B9641E7C
:101A5000A4B2F7D231464846FFF7D3FF1A4E6424AA
:101A6000B61C31464846FFF7C7FE10B9641EA4B243
:101A7000F7D229464846FFF7C4FF6424314648465A
:101A8000FFF7BAFE10B9641EA4B2F7D2012148468E
:101A9000FFF7FCFE0D4D642429464846FFF702FF80
:101AA00010B1641EA4B2F7D200214846FFF798FE99
:101AB0004F20401E80B2FCD20020BDE8F08700001D
:101AC0000100030000030020820007001000001046
:101AD00008B50121480500F075FA0121092000F040
:101AE00091FAC020ADF8000003208DF802001C2000
:101AF0008DF8030069461148FFF77AFD1048FFF79B
:101B00009DFE00200F4988804BF6FF70C880302072
:101B100008814FF480604881000188810A4808608C
:101B200001210748FFF77DFE06490548FFF7D8FE6B
:101B300001210348FFF754FE08BD0000000C0140DE
:101B40000054004088110020801A060000BFFEE704
:101B50007047000070B5002100230F22C47804B341
:101B6000154C246804F4E064C4F5E064210AC1F172
:101B70000403CA40447804FA03F1847814402143F2
:101B800009010E4C0678A155047804F01F050124C4
:101B9000AC4005786D11AD0005F1E025C5F80041B8
:101BA00009E0047804F01F050124AC40044D0678D8
:101BB000761145F8264070BD0CED00E000E400E031
:101BC00080E100E002490143024A116070470000D1
:101BD0000000FA050CED00E010B5002807DA0A074E
:101BE000140E054A00F00F031B1FD45403E00A072C
:101BF000130E024A135410BD18ED00E000E400E09B
:101C000004480168044A01F4E06111430160BFF334
:101C1000408FFEE70CED00E00400FA0570B50024EB
:101C200004F1B000C0B2002100F0F6F8002108462F
:101C300000F0F2F80021102000F0EEF8002501215C
:101C4000002000F0E9F86D1CEDB2802DF7D3641C84
:101C5000E4B2082CE4D370BD10B50021AE2000F032
:101C6000DBF80021084600F0D7F80021102000F032
:101C7000D3F80021402000F0CFF80021812000F0AF
:101C8000CBF80021CF2000F0C7F80021A12000F000
:101C9000C3F80021C82000F0BFF80021A62000F002
:101CA000BBF80021A82000F0B7F800213F2000F089
:101CB000B3F80021D32000F0AFF80021084600F06F
:101CC000ABF80021D52000F0A7F80021802000F01B
:101CD000A3F80021D92000F09FF80021F12000F0A6
:101CE0009BF80021DA2000F097F80021122000F084
:101CF00093F80021DB2000F08FF80021402000F055
:101D00008BF80021202000F087F80021022000F04D
:101D100083F800218D2000F07FF80021142000F0CE
:101D20007BF80021A42000F077F80021A62000F025
:101D300073F80021AF2000F06FF80021AF2000F011
:101D40006BF8FFF76BFF0021BDE810400846AFF3CA
:101D5000008010B50446B031C8B2002100F05CF834
:101D6000102040EA1410002100F056F804F00F0093
:101D7000BDE8104040F00100002100F04DB8000027
:101D80002DE9F041203A00240D468046D7B27F2845
:101D900003D900208D1C8046EDB22946FFF7D9FFFC
:101DA0000F4E00BF04EB07100121305C00F034F847
:101DB000641CE4B2082CF5D36D1CE9B24046FFF771
:101DC000C8FF002404EB071030440121007A00F022
:101DD00023F8641CE4B2082CF4D3BDE8F0810000C1
:101DE000986B00082DE9F04117460E460446002581
:101DF0000CE031462046FFF7C3FF0834E4B2782CEC
:101E000002D90024B61CF6B26D1CEDB27A5D002A30
:101E1000EFD1BDE8F0810000084A30B41268012A11
:101E20000AD1074C034609B1402200E000222046B7
:101E300030BC7821FFF7E8BD30BC704700030020BC
:101E4000005400402DE9F84F05460E4617469846C7
:101E5000AB46B1460097C246FF240021584603F026
:101E6000FAF84946584603F00BF95146009803F03A
:101E7000F2F8504602F01AFFC4B2012C02D0002042
:101E8000BDE8F88F0021584603F0FAF8504602F0FA
:101E90000DFFC4B20CB10020F2E70021009803F05E
:101EA000DAF85146009803F0EBF84946584603F03B
:101EB000D2F8484602F0FAFEC4B2012C01D000204C
:101EC000DEE70021009803F0DBF8484602F0EEFE62
:101ED000C4B20CB10020D3E70120D1E72DE9F843CB
:101EE00080460E4617461C46FF25ADF800601020C0
:101EF0008DF8030003208DF8020069464046FFF785
:101F000077FB31464046FFF752FC00200090ADF8C9
:101F1000004048208DF8030003208DF80200694638
:101F20003846FFF765FB21463846FFF735FC054686
:101F3000012D02D00020BDE8F88331464046FFF76E
:101F400034FC21463846FFF727FC05460DB100203A
:101F5000F1E700200090ADF8004010208DF803005C
:101F600003208DF8020069463846FFF741FB214601
:101F70003846FFF71CFC00200090ADF800604820B8
:101F80008DF8030003208DF8020069464046FFF7F4
:101F90002FFB31464046FFF7FFFB0546012D01D0E0
:101FA0000020C8E721463846FFF7FFFB3146404690
:101FB000FFF7F2FB05460DB10020BCE70120BAE7B0
:101FC0007047000029B1064AD2690243044BDA6126
:101FD00004E0034AD2698243014BDA617047000092
:101FE0000010024029B1064A12690243044B1A61EB
:101FF00004E0034A12698243014B1A6170470000F2
:102000000010024029B1064A92690243044B9A61CA
:1020100004E0034A92698243014B9A6170470000D1
:102020000010024029B1064AD2680243044BDA602C
:1020300004E0034AD2688243014BDA607047000033
:102040000010024030B500210022002400232D4D55
:102050006D6805F00C0121B1042905D0082923D1B0
:1020600005E0294D056022E0284D05601FE0254D63
:102070006D6805F47012234D6D6805F480340225F7
:1020800005EB92421CB9224D554305600BE01D4DF6
:102090006D6805F400351DB11B4D5543056002E028
:1020A0001A4D5543056002E0174D056000BF00BFA3
:1020B000144D6D6805F0F0010909164D6B5C05685B
:1020C000DD4045600F4D6D6805F4E061090A114D72
:1020D0006B5C4568DD4085600A4D6D6805F46051B4
:1020E000C90A0C4D6B5C4568DD40C560054D6D68E7
:1020F00005F44041890B084D6B5CC568B5FBF3F5F1
:10210000056130BD0010024000127A000024F40086
:1021100000093D0044010020540100207CB500204E
:1021200000908DF80400FE20184C8DF8000001236B
:102130006A468021204603F0D1FA42F22831491E36
:1021400089B2FCD2E7258DF8005001236A46802130
:10215000204603F0C3FA012301AA8021204603F0A0
:1021600015FA0223E62280212046FFF74DFC8DF868
:10217000005001236A468021204603F0AFFA012374
:1021800001AA8021204603F001FA7CBD00540040E2
:102190002DE9FC4106460020019005460090F520FF
:1021A0001E4F8DF80400012301AA8021384603F058
:1021B00095FA4FF6FD742046401E80B2FCD20323F0
:1021C0006A468021384603F0E1F960B1142D07D941
:1021D00013A1002000F05CFF4FF0FF30BDE8FC8150
:1021E0006D1CEDB2E7E79DF8010020F003008DF8CB
:1021F0000100BDF8000040BAFEF75BFAFEF7EDFA09
:102200000E4A0F4BFEF754F900220E4BFEF74AF927
:10221000FEF70EFB30600020E0E7000000540040B5
:1022200053485432305F726561645F74656D207429
:10223000696D65206F757420303300007644CF7768
:1022400001405F3F000018402DE9FC410646002098
:10225000019005460090F3201D4F8DF804000123E6
:1022600001AA8021384603F039FA4FF6FD74204662
:10227000401E80B2FCD203236A468021384603F018
:1022800085F958B1142D06D912A000F001FF4FF0C6
:10229000FF30BDE8FC816D1CEDB2E8E79DF8010060
:1022A00020F003008DF80100BDF8000040BAFEF7F1
:1022B00000FAFEF792FA0E4A0E4BFEF7F9F80E4AB4
:1022C0000E4BFEF7EFF8FEF7B3FA30600020E0E7C0
:1022D0000054004053485432305F726561645F744B
:1022E000656D2074696D65206F7574203033000052
:1022F000619FC6DE07F7653FCDCCCCCCCC6C4740A8
:1023000001460020044A10884FF6C7721040084367
:10231000014A1080704700000030014021B102885E
:1023200042F04002028004E002884FF6BF731A4078
:102330000280704700B587B0294800F055F80020AA
:10234000ADF808004FF48270ADF80A000020ADF837
:102350000C00ADF80E00ADF810004FF40070ADF8B1
:1023600012001020ADF814000020ADF81600072070
:10237000ADF8180002A91A4800F06BF8A020ADF8DB
:10238000040018208DF8070003208DF8060001A92D
:102390001448FFF72DF94020ADF8040048208DF8CF
:1023A000070001A90F48FFF723F91020ADF804003A
:1023B0008DF8070003208DF8060001A90948FFF7F2
:1023C00017F90021064800F062F801210448FFF7E0
:1023D000A5FF10210348FFF7EAF9002007B000BD70
:1023E000003001400008014010B504461148844205
:1023F00008D101218014FFF715FE0021A014FFF77A
:1024000011FE16E00C48844208D101210014FFF7A8
:10241000E9FD00212014FFF7E5FD0AE007488442AA
:1024200007D10121C013FFF7DDFD0021E013FFF705
:10243000D9FD10BD0030014000380040003C004094
:102440000246002013890B400BB1012000E0002060
:10245000704710B50022028802F441520B884C8864
:1024600023438C882343CC8823430C8923434C8902
:1024700023438C892343CC8923431A430280838BD3
:102480004FF2FF74234083830B8A038210BD21B176
:10249000828842F00402828004E082884FF6FB7357
:1024A0001A408280704700007CB504460D462E49D4
:1024B00051F824102D4A52F82420114341F0010014
:1024C0000121FFF79FFD34B9294951F8240001216A
:1024D000FFF798FD05E0264951F824000121FFF798
:1024E00071FD18208DF80700224830F81400ADF86F
:1024F000040003208DF806001F4951F8240001A9AB
:10250000FFF776F804208DF807001C4830F8140017
:10251000ADF804001A4951F8240001A9FFF768F842
:10252000184951F82400294600F02EFD4FF4407060
:10253000FFF748FB25208DF8000037208DF80200BA
:1025400001208DF803006846FFF704FB012240F2EA
:1025500025510D4800F0F2FC0A4951F824000121F0
:1025600000F0A9FC7CBD0000C0680008C868000835
:10257000B8680008D0680008A4010020D4680008EA
:10258000AC0100209C010020003801407047000091
:10259000002000BF03E00021024A1154401C012822
:1025A000F9DB70471D02002010B500F001F810BDE6
:1025B0000CB50020019000903348006840F4803052
:1025C0003149086000BF3048006800F400300090D6
:1025D0000198401C0190009818B90198B0F5A06FBF
:1025E000F1D12948006800F4003010B101200090BA
:1025F00001E0002000900098012843D123480068A2
:1026000040F01000214908600846006820F00300EF
:1026100008600846006840F0020008601A484068F8
:10262000194948600846406848600846406840F4D8
:10263000806048600846406820F47C104860084686
:10264000406840F4F81048600846006840F0807028
:10265000086000BF0C48006800F000700028F9D046
:102660000948406820F00300074948600846406870
:1026700040F00200486000BF0348406800F00C00D2
:102680000828F9D10CBD00000010024000200240D3
:1026900000210020044A117803E0044A525C1044EF
:1026A000491C0129F9DB70471B0200201D02002094
:1026B00010B5134800684FF47A71B0FBF1F4B4F12F
:1026C000807F01D3012011E024F07F40401E4FF0B5
:1026D000E02148610F214FF0FF30FFF77DFA002025
:1026E0004FF0E021886107200861002008B100BF99
:1026F000FEE70521881FFFF76FFA002010BD0000DC
:102700005801002002480068401C014908607047D9
:102710000000002010B51348006840F00100114986
:10272000086008464068104908400E49486008465D
:1027300000680E4908400B4908600846006820F40C
:10274000802008600846406820F4FE0048604FF48E
:102750001F008860FFF728FF4FF000600449086001
:1027600010BD0000001002400000FFF8FFFFF6FE61
:1027700008ED00E00026DFF8FCB3FF4DFF4C3746C4
:10278000B146B2469BF800000028FBD0012F35D19E
:10279000DFF8EC83022147464046FFF706F80421A4
:1027A0003846FFF702F800F001FA6078A1780027B8
:1027B000884223D0F1492278A4318A70C87000225F
:1027C0000D2002F006FE00210D2002F015FE002073
:1027D00002F036FD03F088F9E06005E003F084F9CB
:1027E000E168401AC8286FD800210F2002F098FB3A
:1027F0000006F3D504214046FEF7D9FF6078A178A2
:10280000884275D1FFF744FF002862D1E67857E08F
:10281000DA48D046B130014680F802A0C6700022E6
:102820000D2002F0D6FD00210D2002F0E5FD022072
:1028300002F006FD03F058F9E06005E003F054F9FA
:10284000E168401AC828CED800210F2002F068FBAA
:102850002842A060F2D0208940042AD54FF481425A
:1028600000210F2002F069FD0021102002F058FB2A
:1028700000F07F01182903DC0022C24802F0A4FB0B
:10288000C048414680F80280C278B24216D1C17079
:10289000BA4990460A22CB31FDF791FC70B9B7488E
:1028A0000122401D042100F80820B548FEF77FFFF3
:1028B00004E0B54A00210F2002F03FFD761CF6B27D
:1028C000002EA5D0E67802E0E5E0761CF6B2002EF8
:1028D000FBD0B9F1000F61D1FFF7DAFE00287DD0FF
:1028E000DFF8988208F1050888F800A0E67893E000
:1028F000BEE000BF18F80600012870D1962002F053
:1029000045FC40F68C2002F05DFC9C490022BE3163
:102910000D2081F802A0CE7002F05BFD00210D2099
:1029200002F06AFD022002F08BFC00210F2002F071
:10293000F7FA2842A060F8D02089400463D502212C
:102940008F48FEF734FF4FF4814200210F2002F040
:10295000F4FC0021102002F0E3FA00F07F011829B6
:1029600003DC0022874802F02FFB8648514680F89E
:1029700002A0C278B2424DD1C17008218048FEF752
:1029800016FF7E490A22D8317E48FDF718FC30BB7D
:1029900009F10100C0B25FEA000961D043F2BC4016
:1029A00002F010FC002002F02CFB00210F2002F0AE
:1029B000B7FA2842A060F8D02089400440D54FF4EF
:1029C000804200210F2002F0B8FC0021102002F00C
:1029D000A7FA40B2B0F5806F07DC01E02FE019E004
:1029E00081B20022674802F0EFFA664863490A2282
:1029F00080F802A090F8038080F803A0A431FDF7CE
:102A0000DEFB68B12CE008F806A05F4A00210F2029
:102A100002F093FC761CF6B2002E3FF46BAF1FE081
:102A20005648401D10F80810012919D100F808A0D7
:102A3000B9F1000F14D0A9F1010000F0FF090FE077
:102A4000B9F1000F07D04D49A9F10100491D00F06F
:102A5000FF0901F806A04C4A00210F2002F06DFC8E
:102A6000FFF716FE00287FF48DAE0127814689E628
:102A7000002002F0A7FB002002F0C3FA03F034F8B4
:102A8000A046E06009E000BF03F02EF8D8F80C1073
:102A9000401AC82801D9FFF7B3F800210F2002F02F
:102AA0003FFA2842C8F80800EED0B8F80800400401
:102AB00071D54FF4814200210F2002F03EFC00212D
:102AC000102002F02DFA40B2B0F5806F04DC81B224
:102AD00000222C4802F078FA2A49504681F802A0D8
:102AE000CA7898F801309A42C1D1C87023490A22A5
:102AF000B1312448FDF763FBB8B9204898F80010BD
:102B0000CB300022817098F80110C17001460D2071
:102B100002F05FFC00210D2002F06EFC002002F0AC
:102B20008FFB04211648FEF742FE14490A22BE31EB
:102B30001448FDF744FB002899D1104898F800107C
:102B4000D8300022817098F80110C17001460D2024
:102B500002F03FFC00210D2002F04EFC002002F0AC
:102B60006FFB00210F2002F0DBF90006F9D50127E9
:102B700002210CE0B401002000D02724180200201C
:102B800000080140E41100200090272403E00548DC
:102B9000FEF70DFEF6E5044A00210F2002F0CDFB02
:102BA000F0E5000000080140009027242DE9F047DF
:102BB00000260025A9460020A049087000BF37E183
:102BC000962002F0E3FA40F68C2002F0FBFA9B48D4
:102BD00000789B4988709B480078C87000220C20C0
:102BE00002F0F7FB00210C2002F006FC022002F0AC
:102BF00027FB002002F005FA02F076FF074606E008
:102C000002F072FFC01BB0F5AF7F00D909E00021D0
:102C10000F2002F085F98C4908608C490840002893
:102C2000EED000BF02218A48FEF7C1FD8648008829
:102C300000F48040002873D04FF4814200210F201F
:102C400002F07BFB0021102002F06AF900F07F0502
:102C5000182D04DC002229467E4802F0B5F97D4893
:102C6000C07878490978884200D0DFE000207949AF
:102C7000C87088700A2278497648FDF7A0FA0028C3
:102C80007AD102F070FC754A03C202F059FC744A12
:102C900003C27348D0E900304FF02F629A1840F118
:102CA0000000010641EA1228404602F0FEF928F031
:102CB00001000021090241EA106102020023D2183A
:102CC00059416848C0E9002164480CC8664802F0D0
:102CD00014FC63480CC86448001D02F00EFC6148F7
:102CE0000CC86148083002F008FC544800785E497E
:102CF0000A39887053480078C8700022182002F002
:102D000068FB0021182002F077FB032002F098FAFC
:102D100007E002F0E9FEC01BB0F5FA7F01D90AE036
:102D200079E000210F2002F0FBF84749086047498D
:102D300008400028EDD000BF4348008800F48040E0
:102D4000002862D04FF4814200210F2002F0F5FAF2
:102D50000021102002F0E4F800F07F05182D04DCBB
:102D6000002229463B4802F02FF93A48C0783549FD
:102D70000978884201D059E052E000203549C870F6
:102D800088700A2239493348FDF719FAB8BB31482F
:102D9000807A4FF47A7148432E49C97A01EB810158
:102DA00000EB41002B49097B314A52F821100844BD
:102DB0002849097B42F821002648007B2D4951F81B
:102DC0002000401C2349097B2A4A42F821000024A4
:102DD00017E0284850F824002749096888420FDB8B
:102DE00001F08EFB002407E00020224941F8240076
:102DF0001F4941F82400641C2D2CF5DB03E009E099
:102E0000641C2D2CE5DB00BF04E01C4A00210F20D0
:102E100002F093FA04E0194A00210F2002F08DFA23
:102E200006480078401C0549087000BF701CC6B2F7
:102E30002D2EFFF6C5AEBDE8F0870000E8000020AB
:102E40005500002019020020EC00002000D02724AB
:102E500000080140D004002061000020080100208B
:102E600010010020180100207A00002046000020F8
:102E700038090020EC0900203001002000902724B0
:102E800010B540F22551064800F02EF838B1002464
:102E9000034800F0E5F8C4B2204601F0C7F810BDC1
:102EA0000038014001F40072B2F5007F00D100BF8C
:102EB000CA430280704721B1828942F40052828164
:102EC00004E082894DF6FF731A4082817047024602
:102ED0000020B1F5007F00D100BF13880B400BB17B
:102EE000012000E00020704770B502460024002356
:102EF0000025002040F66A16B14200D100BFC1F3A0
:102F0000421501F01F03012606FA03F3012D02D139
:102F10009689334006E0022D02D1168A334001E043
:102F2000968A33400C12012606FA04F416883440BF
:102F300013B10CB1012000E0002070BDF0B50346D4
:102F4000002400260025002040F66A17B94200D16F
:102F500000BF1846C1F3421401F01F06012707FA0B
:102F600006F5012C01D10C3004E0022C01D1103007
:102F700000E014301AB107682F43076002E00768C9
:102F8000AF430760F0BD00002DE9F04786B005466D
:102F90000E460024A24600BFA1460027B08900B11A
:102FA00000BF2F462C8A4CF6FF700440F088044383
:102FB0002C82AC894EF6F3100440B0883189084366
:102FC000718908430443AC81AC8A4FF6FF4004404A
:102FD000B0890443AC8201A8FFF734F81F48874248
:102FE00002D1DDF810A001E0DDF80CA0A88900F402
:102FF000004040B10AEBCA0000EB0A1031684900FA
:10300000B0FBF1F807E00AEBCA0000EB0A103168E8
:103010008900B0FBF1F86420B8FBF0F0040120094E
:10302000642101FB1089A88900F4004040B13220DE
:1030300000EBC900B0FBF1F000F00700044308E02A
:10304000322000EB09106421B0FBF1F000F00F001A
:1030500004432C8106B0BDE8F08700000038014031
:1030600001468888C0F308007047C1F308028280D7
:10307000704770B505460E46002403E0285D03F056
:1030800027FA641CB442F9DB70BD00BFFEE7000004
:103090000FB4054B10B503A9044A029800F054FA86
:1030A00010BC5DF814FB000015550008C404002096
:1030B0000FB4084B10B504A902AA039800F044FA13
:1030C000044602A9002000F0D6FD204610BC5DF8A1
:1030D00014FB0000773C0008490050EAC12018BFEB
:1030E00004204A0D18BF40F0010040F2FF72B2EB1D
:1030F000515F08BF40F00200012808BF052070475B
:1031000000487047CC0400202DE9F0414F1E00EB31
:10311000C7010446D1E9000115461E4637F00602F4
:103120000DD02A463346FDF7C3F97F1E04EBC703D3
:10313000D3E90023FDF715F937F00602F1D1022F8C
:1031400025D0042F13D0062F18BFBDE8F0812A46E2
:103150003346FDF7ADF9D4E90A23FDF702F92A4613
:103160003346FDF7A5F9D4E90823FDF7FAF82A4616
:103170003346FDF79DF9D4E90623FDF7F2F82A4618
:103180003346FDF795F9D4E90423FDF7EAF82A461A
:103190003346FDF78DF9D4E90223FDF7E2F82A461C
:1031A0003346FDF785F9D4E90023BDE8F041FDF78A
:1031B000D8B800000022134610460149FDF7EAB9CD
:1031C0000000F03F0122FDF754BAFDF7CAB8002213
:1031D000134610461146FDF7DDB940F201320020DA
:1031E0004FF0E041FDF745BA024A00201107FDF714
:1031F00040BA000001FDFFFF02E008C8121F08C12D
:10320000002AFAD170477047002001E001C1121F67
:10321000002AFBD170470000014908607047000098
:10322000CC04002038B504466D2000906B46012286
:1032300040F606012E2002F098F83CB140F20762F9
:1032400041F606012E2002F065F806E041F2076221
:1032500041F606012E2002F05DF838BD38B504466F
:103260006B4602220021362001F07CFE0E2C57D244
:10327000DFE804F011071A56565656233256563FC9
:10328000464D00208DF800009DF8010000F0FE0082
:103290008DF8010045E09DF8000000F0FC0040F0D2
:1032A00001008DF800003CE09DF8000000F0FC00FB
:1032B00040F002008DF8000033E09DF8000000F0BF
:1032C000B30040F048008DF800009DF8010040F088
:1032D00080008DF8010024E09DF8000000F0B300AC
:1032E0008DF800009DF8010000F07F008DF80100CE
:1032F00017E09DF8010040F002008DF8010010E099
:103300009DF8010000F0FD008DF8010009E09DF836
:10331000000000F0CF0040F020008DF8000000E039
:1033200000BF00BF6B4601220021362002F01DF8CD
:103330000DF1010301221146362002F016F838BDC6
:1033400008B503208DF8010001208DF800006B46C0
:1033500002220021362002F008F84FF40042062134
:103360002D2001F0D7FF012001F09CF80120FFF78C
:1033700075FF08BD38B50446200A8DF80100E0B29B
:103380008DF800006B46022204212D2001F0EDFF94
:1033900003208DF800006B46012206212D2001F04C
:1033A000E4FF00208DF800006B46012206212D204D
:1033B00001F0DBFF0A212D2001F0B2FD0546284671
:1033C00038BD00002DE9FF5F82B00021DDE9043047
:1033D000020DDDF840B0034318D044F61050A2F2BD
:1033E000FF3242431514119801281FD0A5EB0B00A2
:1033F000401C5FEA000A4FF000064E4FDFF838919C
:10340000B046504615D5CAF1000413E011980124C6
:103410004AA3012801D16FEA0B010298119AC0E971
:103420000031C0E9024206B0BDE8F09FCBF10000D8
:10343000DFE704460021404A491842EB0450CDE939
:10344000001012E0E00707D032463B4640464946AE
:10345000FDF72EF88046894632463B46104619460F
:10346000FDF726F806460F466410002CEAD1DDE988
:103470000401DDE90023BAF1000F06DAFDF718F8C0
:1034800042464B46FDF714F805E0FDF783F8424647
:103490004B46FDF77FF804460E460022284BFDF709
:1034A000AFF903D84FF0FF30014607E00022254B6B
:1034B00020463146FCF755FFFDF775FB102409E067
:1034C000002C0ADB0A220023FDF7EEF9039B3032C1
:1034D0001A55641E50EA0102F2D1641C039AC4F129
:1034E00011031444119A012A03D0012208430DD17B
:1034F0000AE0084304D000204FF0110B119072E74E
:10350000A3EB0B056D1E0DE05B4504DD4FF00002E3
:1035100005F1010504E003DA4FF00002A5F1010511
:10352000002AECD002981199C0E90231C0E90045A7
:1035300079E70000000014400000F03F3000000078
:103540000000F0430000E03F2DE9FF4F95B09B469F
:103550008946064600250FE2252877D10024274614
:10356000F84A0121059400E0044316F8013F203B8E
:1035700001FA03F01042F7D130782A2811D06FF009
:103580002F033078A0F13002092A16D8059A44F0AA
:10359000020402EB820203EB42021044761C059007
:1035A000EFE759F8042B0592002A03DA504244F45D
:1035B0000054059044F00204761C30782E2816D171
:1035C00016F8010F44F004042A280DD06FF02F02E2
:1035D0003078A0F13003092B09D807EB870302EB01
:1035E0004303C718761CF3E759F8047B761C307840
:1035F0006C280FD006DC4C2817D068280DD06A281C
:1036000014D104E0742810D07A280FD10DE044F4CE
:1036100000140AE044F4801401E044F44014727889
:10362000824202D104F58014761C761C307866281C
:103630000BD013DC582877D009DC002875D045283A
:10364000F6D04628F4D047281AD19DE118E0632827
:1036500035D0642879D0652812D195E1702873D0CF
:1036600008DC6728F1D069286FD06E280DD06F284C
:1036700006D1B5E073282CD0752875D0782874D081
:103680005A46179990476D1C75E1C4F30250022801
:1036900009D003280DD0D9F8001004280DD00D60F2
:1036A00009F1040967E1D9F80010EA17C1E90052ED
:1036B000F6E7D9F800100D80F2E70D70F0E719F881
:1036C000041B8DF8001000208DF80100EA4601204F
:1036D00003E059F804AB4FF0FF3061074FF00001F1
:1036E00002D40DE008F101018846B9420FDA8045A5
:1036F000F8DB1AF808100029F4D108E008F10101FC
:1037000088468142FADB1AF808100029F6D105989C
:103710005B46A0EB080721463846179A00F094FA5A
:10372000284400EB080507E04DE029E10DE01AF818
:10373000010B5A4617999047B8F10108F7D25B463A
:1037400021463846179A13E142E00A220092C4F358
:1037500002524FF0000A022A08D059F804CB032A7B
:103760004FEAEC710AD00DE029E02AE009F10701E7
:1037700021F00702F2E802C1914609E00FFA8CFC41
:103780004FEAEC71042A03D14FFA8CFC4FEAEC713A
:10379000002907DA0A460021DCF1000C61EB020186
:1037A0002D2202E0220504D52B228DF804200122CF
:1037B00003E0E20701D02022F7E7904659E00A2112
:1037C00002E010220DE010214FF0000A00910BE002
:1037D00010224FF0000A44F004040827009203E08E
:1037E00008224FF0000A0092C4F30252022A05D0C8
:1037F00059F804CB0021032A08D009E009F1070198
:1038000021F00702F2E802C1914605E01FFA8CFCA4
:10381000042A01D10CF0FF0C4FF00008220728D534
:10382000702806D0009B83F0100353EA0A0305D0EA
:103830000EE040228DF80420012208E05CEA01023B
:1038400006D030228DF804208DF805000222904623
:10385000009B83F0080353EA0A030AD15CEA0102E1
:1038600001D1620705D530228DF804204FF0010800
:103870007F1E582804D034A003900EA802900DE0BB
:1038800036A0F9E753466046009AFDF70DF88446E6
:103890000398825C0298401E029002705CEA01006C
:1038A000F0D1029806A9081A00F1200A600702D593
:1038B00024F4803400E00127574502DDA7EB0A001D
:1038C00000E0002000EB0A01009005984144401AF6
:1038D0000590E00306D45B462146179A059800F050
:1038E000B3F90544002706E001A85A46C05D1799C0
:1038F00090476D1C7F1C4745F6DBE0030CD55B460B
:103900002146179A059800F09FF9054404E03020FD
:103910005A46179990476D1C0099481E009000293F
:10392000F5DC08E0029802995A460078491C029199
:10393000179990476D1CBAF10001AAF1010AF1DC58
:1039400065E1000009280100303132333435363763
:1039500038396162636465660000000030313233DB
:10396000343536373839414243444546000000007B
:1039700000F058F90544761C307800287FF4ECAD4F
:1039800019B02846BDE8F08F620700D4062709F178
:10399000070222F0070CFCE80223E14603F000488E
:1039A0005FEA080C02D00FF2702C0DE05FEA045CB5
:1039B00002D50FF2682C07E05FEAC47C02D00FF258
:1039C000602C01E0AFF2700C4FF0FF3823F00043A1
:1039D000CDF850C065280CD006DC452809D0462813
:1039E0001DD047283DD13DE0662818D067287ED1FC
:1039F00038E00021112F01DB112000E0781CCDE917
:103A0000000106A90EA8FFF7DDFCDDE90F010E9A03
:103A100003910021009207F1010A04914DE04FF05B
:103A200000400097CDE9011006A90EA8FFF7CAFCD7
:103A3000DDE90F0203920E9B11990022DDF80CA024
:103A40000093049211B9791C00EB010AB7EB0A004C
:103A500004D4C0F1FF3007F1010A0490AAEB07007B
:103A6000019044E0012F00DA01270021112F01DD30
:103A7000112000E03846CDE9000106A90EA8FFF7A5
:103A8000A1FCDDE90F010E9A03910021049100923F
:103A9000BA4621070CD40399514500DA8A46BAF197
:103AA000010F05DD009AAAF10101515C302908D00F
:103AB000B84202DA10F1040F06DA0121CDE9011053
:103AC00015E0AAF10101E9E7002805DC04990144A9
:103AD0000491AAEB000102E0411C514500DD8A4639
:103AE0000499401A401C01904FF0004002902007BA
:103AF00004D40198504501DBCDF8048000208DF8F6
:103B00004F0002980DF14F07B0F1004F25D02B2048
:103B10000E9002984FF0020800280CDA4042029002
:103B20002D200E9007E00A210298FCF7A7FE303105
:103B3000029007F8011DB8F10001A8F10108F2DCBC
:103B400002980028EFD1791E0E980870307800F0A6
:103B5000200040F0450007F8020D12A8C01B00F13C
:103B600007081498007800B1012000EB0A010198C1
:103B700001EBE07105984144401A401E0590E003B6
:103B800006D45B462146179A059800F05DF8054477
:103B90001498007818B15A46179990476D1CE003A5
:103BA00024D55B462146179A059800F04DF8054448
:103BB0001CE00498002807DBDDE90301884203DDEF
:103BC0000098405C179901E0179930205A469047B9
:103BD000049805F10105401C04900198401E0190D5
:103BE00004D12E205A46179990476D1CBAF1000156
:103BF000AAF1010ADDDC05E017F8010B5A46179916
:103C000090476D1CB8F10001A8F10108F4DC5B4697
:103C10002146179A0598ABE62D0000002B00000006
:103C2000200000002DE9F041044600251E461746FD
:103C3000880404D405E039462020B0476D1C641E7A
:103C4000F9D52846BDE8F0812DE9F041044600256C
:103C50001E469046C80301D5302700E0202788047F
:103C600004D505E041463846B0476D1C641EF9D5C1
:103C70002846BDE8F0810A68531C0B60107070473D
:103C80002DE9F04D8D4F21F0004A86B005460C46D7
:103C9000BA452ADBAAEB070028430AD088488245A8
:103CA00001DC1AD1CDB106B02846BDE8F04DFFF7D2
:103CB00089BA844A844B2846FCF7FAFB07460E462D
:103CC000824A834B28462146FCF7F2FB06B03A466F
:103CD0003346BDE8F04DFCF744BB0120FFF79CFAEA
:103CE00006B0BDE8F04DFFF772BA7A48824542DA75
:103CF000BAF1795F0BDA2846FFF7EEF9042808BF1E
:103D0000FFF772FA284606B02146BDE8F08D2A4634
:103D10000B461046FCF7CCFB834602466E480E4627
:103D20000B4606217844FFF7EFF95A463346FCF775
:103D3000BFFB804669488A465A4633460421784488
:103D4000FFF7E2F95A463346FCF7B2FB00223B4646
:103D5000FCF707FB02460B4640465146FCF71AFCAF
:103D60002A462346FCF7A4FB06B02A462346BDE8B4
:103D7000F04DFCF7F6BA284624F0004100223D46FB
:103D80003B46FCF792FB4FF0FF32FCF772FC064615
:103D9000024653480F460B4606217844FFF7B4F914
:103DA00032463B46FCF784FBCDE900014D483246E4
:103DB0003B4604217844FFF7A7F932463B46FCF71F
:103DC00077FB00222B46FCF7CCFA83460291304663
:103DD000394602F0FCFB804643480D46504517DC4F
:103DE000DDE900015A46029BFCF7D4FB42462B4614
:103DF000FCF75EFB42462B46FCF7B3FA0122FCF7C8
:103E000038FC304A304BFCF74DFB304A304B4CE02D
:103E10004FF0000A52460B464046FCF7A2FACDE9A5
:103E2000031052462B4610461946FCF741FB32461A
:103E30003B46FCF73AFBDDE90332FCF7ABFB0646F9
:103E40000F46DDE900015A46029BFCF7A3FB8346BF
:103E50000091012230463946FCF70BFC194A1A4BF7
:103E6000FCF723FB06460F46012240462946FCF795
:103E700000FC5A46009BFCF71BFB32463B46FCF716
:103E800011FB06460F46012250462946FCF7F1FB7E
:103E90000E4DDFF858802A464346FCF706FB3246B3
:103EA0003B46FCF702FB2A464346FCF7FEFA002C91
:103EB000D8BF81F0004106B0BDE8F08D0000F03FB2
:103EC0000000F07F075C143326A6913C182D445463
:103ED000FB21F93F0000E03F603400007634000031
:103EE000EA330000003400003333EF3FFB21E93FA9
:103EF0002DE9F047ADF57C7D06460F464FF0FF38C3
:103F000000244FF0FA09A24600254FF47A7102A866
:103F1000FCF731F93EA13046FCF738F900B967E00B
:103F2000002512E03B4850F835103046FCF72EF9DA
:103F300004464CB1374951F83500FCF739F90444CF
:103F4000A01B1FFA80FA02E06D1C0A2DEAD300BF05
:103F50000A2D00D34CE020783F2814D160780D283A
:103F600011D1A0780A280ED12A4800EBC50040687C
:103F7000D0B3284800EBC50002AA49464368012097
:103F80009847804633E020780D2811D160780A28C0
:103F90000ED1204800EBC500406828B31D4800EB57
:103FA000C50002AA494643680220984780461EE0A1
:103FB00020783D2819D1641CA7EB0A0102AB2C2202
:103FC0002046CDF8009002F028FB8146114800EB16
:103FD000C500406840B10F4800EBC50002AA494641
:103FE000436803209847804601E04FF0FF3800BF48
:103FF000B8F1FF3F03D108A0FFF74AF802E009A09B
:10400000FFF746F840460DF57C7DBDE8F0870000DF
:1040100041540000BC0100200D0A4552524F520D80
:104020000A0000000D0A4F4B0D0A000070B504464F
:104030004FF0FF35FDF7BDFB1B490968401AC82842
:1040400004D81A480088B0F5007F04DB0020174927
:10405000088017490870FDF7ACFB13490860134846
:1040600001880088401C114A1080124844540A2CD0
:104070000ED10F48007801280AD1104601880D485A
:10408000FFF736FF054600200949087007490880F8
:104090000D2C03D101200649087002E000200449DC
:1040A0000870284670BD0000100200200C0200209D
:1040B00014020020880F002010B501210820FDF710
:1040C000A1FF01210846FDF79DFF01213448FDF7BE
:1040D0001BFBFF244FF40073324A91151046FDF785
:1040E000FDFEC4B224B930A0FEF7D2FF002010BDFF
:1040F00031A0FEF7CDFF4FF400432A4A9115334813
:10410000FDF7ECFEC4B224B931A0FEF7C1FF0020D8
:10411000EDE734A0FEF7BCFF4FF40063214A022113
:104120001046FDF7DBFEC4B224B933A0FEF7B0FFA2
:104130000020DCE735A0FEF7ABFF4FF48063194A9F
:1041400008212248FDF7CAFEC4B224B934A0FEF704
:104150009FFF0020CBE737A0FEF79AFF2023114AEC
:1041600008211046FDF7BAFEC4B224B936A0FEF706
:104170008FFF0020BBE738A0FEF78AFF1023094A13
:10418000D9021248FDF7AAFEC4B224B937A0FEF73F
:104190007FFF0020ABE73AA0FEF77AFF0120A6E7F9
:1041A00000023000000C0140205042382D504239AE
:1041B000206661696C0D0A005042382D504239204A
:1041C000737563636573730D0A0000000008014096
:1041D000205041382D50423135206661696C0D0AFE
:1041E000000000005041382D504231352073756376
:1041F000636573730D0A0000205042312D50423127
:1042000031206661696C0D0A000000005042312DBA
:104210005042313120737563636573730D0A00007A
:10422000205041332D50423130206661696C0D0AB7
:10423000000000005041332D50423130207375632F
:10424000636573730D0A0000205042332D504235D0
:10425000206661696C0D0A005042332D50423520B2
:10426000737563636573730D0A000000205041315C
:10427000352D504234206661696C0D0A0000000043
:10428000504131352D50423420737563636573732B
:104290000D0A000010B5FF2400F08AFC00F095FC28
:1042A0004FF480631A0191110801FDF7CBFDC4B2F0
:1042B00024B90DA0FEF7ECFE002010BD0EA0FEF705
:1042C000E7FE4FF400631A0191110801FDF7BAFDF2
:1042D000C4B224B90DA0FEF7DBFE0020EDE70FA06D
:1042E000FEF7D6FE00BFE8E7494F20342D362066A2
:1042F00061696C0D0A000000494F20342D3620738F
:104300007563636573730D0A00000000494F203523
:104310002D37206661696C0D0A000000494F203579
:104320002D3720737563636573730D0A00000000F9
:1043300070B504460D46164600200121564AD1723A
:104340006D230146401C0D31535472230146401C1D
:104350000D31535402230146401C0D3153544F4933
:104360000B780146401C0D3153544D490B780146E2
:10437000401C0D3153544A490988C1F307230146B3
:10438000401C0D3153540A2194FBF1F1CBB201468C
:10439000401C0D3153540A2194FBF1F1C1F3072362
:1043A0000146421CD0B20D313B4A53540A2195FBC1
:1043B000F1F1CBB20146421CD0B20D31364A535412
:1043C0000A2195FBF1F1C1F307230146421CD0B24B
:1043D0000D31314A53540A2196FBF1F1CBB201461B
:1043E000421CD0B20D312C4A53540A2196FBF1F1F4
:1043F000C1F307230146421CD0B20D31264A535463
:104400000A2194FBF1F1CBB20146421CD0B20D312E
:10441000214A53540A2194FBF1F1C1F307230146C9
:10442000421CD0B20D311C4A53540A230146421C8F
:10443000D0B20D31184A53540D230146421CD0B25C
:104440000D31154A53541146087300F10B011E2912
:1044500001DD00BFFEE7124800780F4988700F4861
:104460000078C87000221F2000F0B3FF00211F2039
:1044700000F0C2FF002000F0E3FE00BF00210F208B
:1044800000F04EFD00F080000028F7D004480068DE
:10449000401C0349086070BD8800002019020020FC
:1044A0004001002070B5044601F01EFB051900BF55
:1044B00001F01AFB401B0028FADD70BD014651B126
:1044C00017200122824043099B0003F1E023C3F837
:1044D000002100BF00BF704710B51720FCF734FF64
:1044E000044644B1172001218140044A430942F89F
:1044F000231000BF00BF204610BD000080E100E097
:104500002DE9FC41002414E04F4850F82400002815
:104510000EDD4E4850F824004B4951F8241090FB12
:10452000F1F52146284600F093FF484941F8240060
:10453000641C2D2CE8DB454B9A6859681868FFF716
:10454000F7FE00241CE0404850F82400002816DD47
:104550003E4951F82400FCF7A3F880463C49FBF79C
:10456000C2FE0546FCF739F92246CDE9000139A122
:104570003B48FEF79DFD3A493AA0FEF789FD641CD1
:104580002D2CE0DB3048006800281BDD2F4908682F
:10459000FCF786F807462E49FBF7A5FE0446FCF714
:1045A0001CF905462A460B4630A12D48FEF780FD32
:1045B00031A202210020FDF715FC294A022100202A
:1045C000FDF710FC2048406800281BDD1F494868A3
:1045D000FCF766F807461E49FBF785FE0446FCF724
:1045E000FCF805462A460B4625A11D48FEF760FD4E
:1045F00026A204210020FDF7F5FB194A0421002022
:10460000FDF7F0FB1048806800281BDD0F49886823
:10461000FCF746F807460E49FBF765FE0446FCF733
:10462000DCF805462A460B4611A10D48FEF740FD71
:1046300016A206210020FDF7D5FB094A062100201D
:10464000FDF7D0FBBDE8FC81EC0900203809002013
:1046500000007A44616E25643A25332E32666D007F
:10466000D411002025730D0A00000000616E303A5D
:1046700025332E32666D000020090920202000001D
:10468000616E313A25332E32666D00000909200033
:104690002DE9FC5F82460020009004466D460190A3
:1046A00004F128002919C0B200F0B2F8641CE4B289
:1046B000062CF5D3BDF900000011FBF7F1FF06460B
:1046C000BDF902000011FBF7EBFF0446BDF9040041
:1046D0000011FBF7E5FF05463046FCF77EF8024681
:1046E0000B463EA0FEF7D4FC2046FCF776F80246C7
:1046F0000B463DA0FEF7CCFC2846FCF76EF80246C0
:104700000B463CA0FEF7C4FC3046FCF709F8002835
:1047100000DA4042FBF7C4FF83462046FCF700F86E
:10472000002800DA4042FBF7BBFF04462846FBF7AF
:10473000F7FF002800DA4042FBF7B2FF8146FCF7A2
:104740004CF84FF080480022434601F0D3F905466B
:104750000E462046FCF741F80022434601F0CAF914
:1047600007460C465846FCF738F80022434601F04D
:10477000C1F93A462346FBF7F4FD2A463346FBF7D8
:10478000F0FD01F024FFFCF753F8044601464846CB
:10479000FCF76AF800D2A14621464846FBF7A3FD84
:1047A000FCF71BF8FFF76CFA0122FBF762FF144AD3
:1047B000144BFBF7EFFE0022134BFBF779FEFCF7DF
:1047C00037F801461148FBF788FD10F1FF4F00D381
:1047D0000020CAF800000020BDE8FC9F6163635F11
:1047E000783A25660D0A00006163635F793A2566B1
:1047F0000D0A00006163635F7A3A25660D0A0000C6
:104800001F85EB51B81E0940008056400000B4429D
:104810002DE9F047384E0F46814632254FF40034DB
:1048200021463046FDF73EF80028F9D101213046F7
:10483000FDF720F8314C30462146FDF733F80028CB
:10484000F9D0002229463046FDF7D2F8DFF8B080D3
:1048500030464146FCF7D0FF0028F9D049463046A3
:10486000FDF7CFF8DFF8988008F10208414630469E
:10487000FCF7C2FF0028F9D001213046FCF7FAFF0F
:1048800021463046FDF70EF80028F9D001222946CE
:104890003046FDF7ADF81B4C30462146FCF7ACFF27
:1048A0000028F9D0174C3E3421463046FCF7A4FFCF
:1048B0000028F9D03046FDF797F804464FF2FF7113
:1048C0003046FDF783F800213046FCF789FF0121CF
:1048D0003046FCF7DBFF094D0F3529463046FCF723
:1048E000E1FF0028F9D100213046FCF779FF3C7048
:1048F0000020BDE8F08700000054004001000010D7
:10490000820007000200030010B50B460246322168
:104910000248FDF779F8002010BD00000054004067
:1049200010B537212020FFF7EFFF03212120FFF7EB
:10493000EBFFC0212220FFF7E7FF88212320FFF7AC
:10494000E3FF7F213020FFF7DFFF02213220FFF756
:10495000DBFF03213320FFF7D7FF5F21BDE81040C5
:104960002020FFF7D1BF00002DE9F84F04464FF09B
:104970000009CA4625786079824931F8108060784C
:10498000401E8149C6B20863042D01D0072D01D114
:10499000012000E00020834620787B490873E079FD
:1049A00038B90846806940F4800088614FEAE80819
:1049B00005E07548806920F4800073498861207A99
:1049C0007149487308468069217A4FF4403202EAFF
:1049D000014108436C49886108460021826904202E
:1049E00000F0ABFC424642F604012E2000F092FC9F
:1049F0003046FEF717FC6548405D00EB80006449D7
:104A00004318052207212B2000F0AFFC614800EB82
:104A10000B0301220B21282000F0A7FC5B48405D1E
:104A20005D4951F820200C21282000F086FCE07917
:104A30005A4901EB8000A17930F81120022127208A
:104A400000F068FC564830F816200421272000F0BA
:104A500061FCE07928B964220621272000F05AFC85
:104A60001EE0A07804280DD110200090102206210D
:104A7000272000F04FFC6B4601222621272000F062
:104A800074FC0DE02820009020220621272000F051
:104A900041FC6B4601222621272000F066FC00BF66
:104AA000404800EB0610E17850F82120082127202B
:104AB00000F043FCB4F8090018B941F24100A4F831
:104AC0000900B4F809202021272000F023FC3648F3
:104AD0000C210268232000F030FC3348001D30F820
:104AE00016200421232000F015FCA07958B1E079AC
:104AF0002E49431801220021212000F036FC4FF0FE
:104B000003094FF0010A05F00F00F02101EA051139
:104B1000084361784FF4402202EA81410843910042
:104B200001EA095108434FF4003101EA4A410843C0
:104B300021794FF0F86202EA81510843617952010C
:104B400002EAC16140EA01073A4600211F2000F055
:104B5000F4FBA0786178084300040B49086108461B
:104B60000069E1794FF4004242EA413108430649C5
:104B70000861084600210269082000F0DEFB0020E1
:104B8000BDE8F88F5C69000898110020E068000813
:104B9000006900081E690008E86800082C69000820
:104BA000386900083C690008206900082869000885
:104BB00010B50021362000F0B3F9044644F4403229
:104BC0000021362000F0B9FB10BD38B54FF4401479
:104BD0006B4604220021262000F0C4F99DF8000055
:104BE000E1B208438DF800009DF80100C4F30721ED
:104BF00008438DF801009DF8020020EA14408DF86A
:104C000002009DF8020040F010008DF802009DF8AF
:104C1000030040EA14608DF803006B460422002173
:104C2000262000F0A2FB38BD70B5054604213620D1
:104C300000F076F9044615B144F4006401E024F470
:104C4000006422460421362000F077FB70BD00008E
:104C500038B54020009000210E2000F061F9054693
:104C6000FFF73AFC0446002211460E2000F065FBD7
:104C70006B46012200210D2000F077FB094A00213C
:104C80000F2000F05AFB00F029FB2A4600210E20DD
:104C900000F053FB2046FFF711FC0020024981F889
:104CA0002C0038BDF8FF27249811002010B50446C9
:104CB0002821262000F034F9204008B1012010BD41
:104CC0000020FCE72DE9F74F84B006468B46002410
:104CD0005846FBF782FD00223A4BCDE90001FBF775
:104CE000E7FBCDE90201FBF734FD8246BAF1FF0F85
:104CF00001DD4FF0FF0A0698012825D1042E02D0CD
:104D0000072E10D100E000BF2F48855D00E0641C35
:104D100005EB05102D4901EB8000005D5045F6DBE9
:104D2000A4F11C090FE02A48855D00E0641C05EB36
:104D3000850000EB451027490844005D5045F5DB30
:104D4000A4F1170900BF27E0042E02D0072E11D1CD
:104D500000E000BF1C48855D00E0641C05EB850099
:104D6000C0EB85101C490844005D5045F5DBA4F1FB
:104D70001E0910E01648855D00E0641C05EB850007
:104D800000EBC500154901EB4000005D5045F4DB28
:104D9000A4F1110900BF00BF4846FBF781FC039056
:104DA000FBF71BFD074688460D4A0E4B3846414629
:104DB000FBF77EFB074688463846414607B0BDE80C
:104DC000F08F00000000104096690008326A000869
:104DD0008E6900089E690008226B0008BA6A000804
:104DE0007B14AE47E17A843F2DE9FC410446042060
:104DF00001900025002700203C49487508630021E8
:104E00003A4880F825100020384981F82C00888322
:104E10004863886300F0A0F83449086008460068D9
:104E20003349884202D08817BDE8FC810020FEF794
:104E300015FA01AB01220021242000F096FA1E2071
:104E4000FEF798FA85B2280A284988730420FEF7ED
:104E500091FA0746F8B270B1022000906B46012229
:104E600012212D2000F081FA2048808B40F48050E0
:104E70001E49888300BF0620FEF77CFA1B49486064
:104E80000720FEF777FA1949886005F01F000875BA
:104E90000846007D08B9102008751449087D00F007
:104EA000BDFA04F0010040B1FEF74AFA0F48808BCA
:104EB00040F400600D4988830DE00521362000F0A4
:104EC00019F806464FF6FF500640324605213620B7
:104ED00000F020FA00BF0120FEF7C0F900210420F5
:104EE00000F01EF80149886100209DE7981100201C
:104EF0003001CADEF8B504460D464FF6FF76A9B27A
:104F0000A0B26B46022200F02DF8074637B99DF893
:104F100000009DF8011000EB012086B23046F8BD7C
:104F20002DE9F84305460E464FF0FF37B1B2A8B25F
:104F30006B46042200F016F88046B8F1000F08D145
:104F4000032404E01DF8040000EB0727641E002C76
:104F5000F8DA3846BDE8F88310B500210846FFF7B7
:104F6000DFFF10BD2DE9F84306460C46174698466C
:104F700000252CB9F2B228466D1C0DF800201BE06C
:104F8000F0B240F0400228466D1C0DF800207F2C46
:104F900005DCE2B228466D1C0DF800200CE0E0B202
:104FA00040F0800228466D1C0DF80020C4F3C712A3
:104FB00028466D1C0DF80020A8B243463A466946C3
:104FC00001F08CFABDE8F88370B504460D4616462C
:104FD00023462A4631461120FFF7C4FF70BD10B5A5
:104FE00004462346052200211520FFF7BBFF10BD14
:104FF00010B504462346052200211720FFF7B2FF13
:1050000010BD38B504460020009000F067F94FF459
:1050100080750CB145F400752A4600210D2000F082
:1050200079F9B4B16B46012203210F20FFF79AFFF3
:105030009DF8000000F0080058B1FFF709FE4FF49A
:1050400080752A4600210D2000F064F94FF0FF30F2
:1050500038BD0020FCE7F8B505460E4646EA0504D3
:10506000E0B28DF80000200A8DF80100200C8DF8C8
:1050700002006B4603220821262000F076F9F8BDD5
:10508000F8B505460E4646EA0504E0B28DF8000084
:10509000200A8DF80100200C8DF802006B460322D7
:1050A0000C21262000F061F9F8BD10B50446224617
:1050B00001210A2000F041F910BD38B5044604F082
:1050C0000100B8B36B46022200212620FFF74AFFF9
:1050D0009DF8010020F03C008DF801009DF80100D2
:1050E00040F014008DF801000DF10103012211467A
:1050F000262000F03AF96B46012202213620FFF704
:1051000031FF9DF8000040F084008DF800006B46F0
:1051100001220221362000F028F910208DF800002D
:1051200001208DF801006B4602222821362000F074
:105130001CF915E0FFE704F0010088B96B46022274
:1051400000212620FFF70EFF9DF8010020F014003B
:105150008DF801006B4602220021262000F005F99F
:1051600004F0020088B10F208DF800006B46012288
:105170002A21362000F0F9F800208DF800006B4657
:1051800001222A21362000F0F0F838BD70B505461E
:1051900000211A20FFF7C4FE04466FF31304C5F381
:1051A00013000443224600211A2000F0C6F870BD07
:1051B00010B50446224641F604012E2000F0AAF85C
:1051C00010BD000038B504466B46012203210420BF
:1051D000FFF7C8FE002C16DD224600210C2000F04F
:1051E00099F89DF8000040F0100000900F48806989
:1051F00040F080500D4988616B4601220321042054
:1052000000F0B3F810E09DF8000020F010000090CE
:105210000648806920F08050044988616B4601226D
:105220000321042000F0A1F838BD000098110020EF
:1052300010B5044622460021182000F06BF810BD7E
:10524000F8B50446002500200090002604F0020076
:1052500058B1802000906B46012200210D2000F003
:1052600084F801201C4981F82C0004F0010028B3C7
:105270009DF8000040F0060000906B4601220021DE
:105280000D2000F072F803210F20FFF733FE0646D1
:1052900006F4816008B900251BE0402000906B46B1
:1052A000012200210D2000F060F80020FFF7BCFC77
:1052B0000020094981F82C00451E0AE09DF80000F5
:1052C00040F0020000906B46012200210D2000F00A
:1052D0004CF82846F8BD0000981100201CB501AB21
:1052E000012203210F20FFF73DFE9DF8040000F08E
:1052F00080009DF8041001F04001B0EB410F08D090
:10530000012000906B46012203210D2000F02DF8B2
:1053100000BF1CBDF8B505460E461446E0B28DF838
:10532000000020128DF80100B1B2A8B26B46022233
:1053300000F01BF807463846F8BD2DE9F84306464D
:105340000F461446002504E0E0B20DF80500240ADB
:105350006D1C042DF8DBB9B2B0B26B46042200F02C
:1053600004F880464046BDE8F8832DE9F843064638
:105370000C461746984600253CB9F0B240F0800232
:1053800028466D1C0DF800201BE0F0B240F0C00272
:1053900028466D1C0DF800207F2C05DCE2B2284663
:1053A0006D1C0DF800200CE0E0B240F080022846B1
:1053B0006D1C0DF80020C4F3C71228466D1C0DF8B3
:1053C0000020A8B243463A46694601F06DF9BDE8AF
:1053D000F88370B504460E4615462819B0F5806F5F
:1053E00002DD4FF0FF3070BDA21E33462946092072
:1053F000FFF7BBFF0020F6E770B504460D460648F0
:105400000069204340EA8556324600210820FFF714
:1054100094FF002070BD00009811002038B50446AC
:105420006B4601220E212B20FFF79CFD9DF800000A
:1054300020F01F00009004F01F009DF800100843AA
:1054400000906B4601220E212B20FFF78EFF38BD06
:1054500070B5044600220023002C2ADD1E4850F8B7
:10546000215050F82100401C1B4E46F8210001EB52
:1054700081001A4E06EB800040F82540164850F88F
:105480002100052803D10020134D45F821000022FA
:1054900009E001EB8100114D05EB800050F822007E
:1054A0000344501CC2B2052AF3DB052093FBF0F045
:1054B00070BD002209E001EB8100084D05EB800082
:1054C00050F822000344501CC2B2052AF3DB052029
:1054D00093FBF0F0ECE70000040B0020A00A002092
:1054E00010B500220A60835CD400A3400C68521CF3
:1054F00023440B60042AF6DB10BD70B50146002082
:1055000005E00A54140A44EA03621B0A401C0428FA
:10551000F7DB70BD70B504460D4640210748FDF726
:10552000C1FCE1B20548FDF7A0FD00BF40210348E2
:10553000FDF7CDFC0028F9D0204670BD00380140B1
:105540007CB5002425466846FFF749FD04206946DE
:105550002D0245EA146522020C5C1443401EF7D567
:10556000204629467CBD7CB5002425466846FFF7C9
:105570003FFD042069462D0245EA146522020C5CB9
:105580001443401EF7D5204629467CBD2DE9FF5F18
:105590001D4614468B464FF0000A64264FF4003730
:1055A00039460098FCF77EF908B1761EF8D2012141
:1055B0000098FCF75FF9464F642639460098FCF7DF
:1055C00071F908B9761EF8D264260022594600986F
:1055D000FCF70EFADFF8F880DFF8F89008F10F0812
:1055E00049460098FCF708F9A8B1002E16DC012105
:1055F0000098FCF74BF9444621460098FCF752F915
:105600000028F9D100210098FCF7EAF84FF0FF30AC
:1056100004B0BDE8F09F761EE2D2E8E764260121DF
:105620000098FCF727F939460098FCF73BF908B9D0
:10563000761EF8D26426012259460098FCF7D8F964
:10564000254F00983946FCF7D7F808B9761EF8D2EE
:10565000DFF88490002609F13E094FF4006B6D1EBF
:1056600015E0642749460098FCF7C6F808B97F1E84
:10567000F8D20098FCF7B8F904F8010B59460098E5
:10568000FCF7A4F901210098FCF7AAF8761CAE42B9
:10569000E7D30098FCF7A8F920704FF2FF7100984B
:1056A000FCF794F900210098FCF79AF80121009882
:1056B000FCF7ECF8444621460098FCF7F3F8002884
:1056C000F9D100210098FCF78BF85046A0E70000C4
:1056D0000100001082000700020003002DE9F047DE
:1056E0001F46164688468146002542F20F740AE09E
:1056F00032784146484600F00BF82046761C401EA2
:1057000080B2FCD26D1CBD42F2D3BDE8F087000030
:105710002DE9F0410F46164680460121FCF7AAF814
:10572000224D642429464046FCF766F810B9641EF1
:10573000A4B2F7D2002239464046FCF759F914B911
:105740001B49002008601B4D642429464046FCF795
:1057500053F810B9641EA4B2F7D231464046FCF7A4
:1057600050F9144D6424AD1C29464046FCF744F81A
:1057700010B9641EA4B2F7D201214046FCF786F8A6
:105780000D4D642429464046FCF78CF810B1641E88
:10579000A4B2F7D200214046FCF722F842F22730AB
:1057A000401E80B2FCD20020BDE8F0810100030061
:1057B0000003002082000700100000102DE9FC47C4
:1057C00000260027B046B146B24600F06DF974A03D
:1057D000FDF75EFC00F0C2FE00F0F4FE0120FFF7D2
:1057E00003FB401CD8B973A0FDF752FC77A200213F
:1057F0000846FCF7F7FA11E04FF400517648FBF742
:10580000D6FF4FF47A70FEF74DFE4FF40051724808
:10581000FBF7CBFF4FF47A70FEF744FEECE700F0A5
:10582000CCFE6E48FFF7A0F80120FFF746FC48F2D7
:10583000B600FFF7BDFC0020FFF7FAFC68A20021CC
:105840000846FCF7CFFA69A0FDF722FC6BA0FDF734
:105850001FFC72497248734AC2E9001072497348CA
:10586000C2E9021000201061506100217048C2E9B5
:10587000061000226B48026242620020694A906270
:10588000D062116351639163D16310460164416436
:1058900048F270040025674903C9CDE900010322DD
:1058A00069466548FBF7CBFDBDF80000012802D131
:1058B0006249088009E0BDF8000018B900205F497E
:1058C000088002E001205D4908805C4800880128CA
:1058D0001DD1BDF8020000280BDBBDF80200FF2837
:1058E00007DCBDF8020055494880084680785449D5
:1058F00008705348017853A0FDF7CAFBFBF70EFD73
:1059000056A200210846FCF76DFAFBF707FA4B4850
:105910000088002841D1BDF8020000280FDBBDF847
:105920000200FF280BDCBDF802004449488008460D
:1059300080784E490870084600784D4908703F4805
:1059400041884CA0FDF7A4FB4848007848490978F5
:10595000884205D14CA200210846FCF743FA04E036
:105960004DA200210846FCF73DFA9620FFF70EFCF9
:1059700040F68C20FFF726FC3C4800783C4909782B
:10598000884206D14FF00108FCF702FE4FF00009F3
:1059900001E04FF00008FCF7EDFE0020BDE8FC87B9
:1059A00068656C6C6F2064776D31303030210D0A82
:1059B0000000000064776D3130303020696E69740A
:1059C000206661696C210D0A00000000494E4954AF
:1059D000204641494C000000001001400800002012
:1059E000494E49542050415353000000696E697478
:1059F0002070617373210D0A000000004149542D8D
:105A0000425530312D44422056313030205432300E
:105A100032302D352D31370D0A000000B81E85EBD0
:105A200051B8BE3FE8040020C3F5285C8FC2D53FC3
:105A30000000D03F2868000800000108B6010020DF
:105A40001C0200206465766963653A616E63686F65
:105A5000722049443A25640D0A0000004453205442
:105A6000575220414E54484F520000001902002066
:105A70001A0200206465766963653A5441472049FB
:105A8000443A25640D0A00004453204D41535445C7
:105A900052205441473A0000445320534C4156454C
:105AA000205441473A00000010B501217D20FCF749
:105AB000A9FA01210803FCF7A5FA01218803FCF7E4
:105AC00081FAFBF71BFDFCF7F3FD00F06FFD00F022
:105AD000D6FDFBF7FDFFFEF723FFFCF71FFBFCF7EE
